{
  "contractName": "Defi",
  "abi": [
    {
      "anonymous": false,
      "inputs": [
        {
          "indexed": true,
          "internalType": "address",
          "name": "_user",
          "type": "address"
        },
        {
          "indexed": false,
          "internalType": "uint256",
          "name": "_amount",
          "type": "uint256"
        }
      ],
      "name": "DepositBnbEvent",
      "type": "event"
    },
    {
      "anonymous": false,
      "inputs": [
        {
          "indexed": true,
          "internalType": "address",
          "name": "_user",
          "type": "address"
        },
        {
          "indexed": false,
          "internalType": "uint256",
          "name": "_amount",
          "type": "uint256"
        }
      ],
      "name": "WithdrawBnbEvent",
      "type": "event"
    },
    {
      "inputs": [],
      "name": "BNB_ADDRESS",
      "outputs": [
        {
          "internalType": "address",
          "name": "",
          "type": "address"
        }
      ],
      "stateMutability": "view",
      "type": "function"
    },
    {
      "inputs": [
        {
          "internalType": "address",
          "name": "",
          "type": "address"
        }
      ],
      "name": "bnbBank",
      "outputs": [
        {
          "internalType": "uint256",
          "name": "",
          "type": "uint256"
        }
      ],
      "stateMutability": "view",
      "type": "function"
    },
    {
      "inputs": [
        {
          "internalType": "uint256",
          "name": "_amount",
          "type": "uint256"
        }
      ],
      "name": "depositBNB",
      "outputs": [],
      "stateMutability": "payable",
      "type": "function"
    },
    {
      "inputs": [
        {
          "internalType": "uint256",
          "name": "_amount",
          "type": "uint256"
        }
      ],
      "name": "withdraw",
      "outputs": [],
      "stateMutability": "nonpayable",
      "type": "function"
    }
  ],
  "bytecode": "0x608060405234801561001057600080fd5b506108dc806100206000396000f3fe60806040526004361061005c576000357c0100000000000000000000000000000000000000000000000000000000900480632e1a7d4d146100615780636e5bc5671461008a57806370de629f146100c75780639da90f19146100f2575b600080fd5b34801561006d57600080fd5b50610088600480360381019061008391906104ff565b61010e565b005b34801561009657600080fd5b506100b160048036038101906100ac91906104d6565b61035d565b6040516100be91906106a5565b60405180910390f35b3480156100d357600080fd5b506100dc610375565b6040516100e9919061060a565b60405180910390f35b61010c600480360381019061010791906104ff565b61038d565b005b6000811415610152576040517f08c379a000000000000000000000000000000000000000000000000000000000815260040161014990610625565b60405180910390fd5b806000803373ffffffffffffffffffffffffffffffffffffffff1673ffffffffffffffffffffffffffffffffffffffff1681526020019081526020016000205410156101d3576040517f08c379a00000000000000000000000000000000000000000000000000000000081526004016101ca90610665565b60405180910390fd5b806000803373ffffffffffffffffffffffffffffffffffffffff1673ffffffffffffffffffffffffffffffffffffffff1681526020019081526020016000205461021d9190610732565b6000803373ffffffffffffffffffffffffffffffffffffffff1673ffffffffffffffffffffffffffffffffffffffff1681526020019081526020016000208190555060003373ffffffffffffffffffffffffffffffffffffffff1682604051610285906105f5565b60006040518083038185875af1925050503d80600081146102c2576040519150601f19603f3d011682016040523d82523d6000602084013e6102c7565b606091505b505090508061030b576040517f08c379a000000000000000000000000000000000000000000000000000000000815260040161030290610645565b60405180910390fd5b3373ffffffffffffffffffffffffffffffffffffffff167f5d8b119eb56d011e330535432afa15eadd747a6728dfb277f628d82613fb75e88360405161035191906106a5565b60405180910390a25050565b60006020528060005260406000206000915090505481565b73eeeeeeeeeeeeeeeeeeeeeeeeeeeeeeeeeeeeeeee81565b8034146103cf576040517f08c379a00000000000000000000000000000000000000000000000000000000081526004016103c690610685565b60405180910390fd5b806000803373ffffffffffffffffffffffffffffffffffffffff1673ffffffffffffffffffffffffffffffffffffffff1681526020019081526020016000205461041991906106dc565b6000803373ffffffffffffffffffffffffffffffffffffffff1673ffffffffffffffffffffffffffffffffffffffff168152602001908152602001600020819055503373ffffffffffffffffffffffffffffffffffffffff167fe06c3e17aa16606fb4c7ff40db4d7143ef95a643dffbc90fe458a1344ff03d31826040516104a191906106a5565b60405180910390a250565b6000813590506104bb81610878565b92915050565b6000813590506104d08161088f565b92915050565b6000602082840312156104e857600080fd5b60006104f6848285016104ac565b91505092915050565b60006020828403121561051157600080fd5b600061051f848285016104c1565b91505092915050565b61053181610766565b82525050565b60006105446019836106cb565b915061054f826107d1565b602082019050919050565b6000610567600f836106cb565b9150610572826107fa565b602082019050919050565b600061058a601f836106cb565b915061059582610823565b602082019050919050565b60006105ad6000836106c0565b91506105b88261084c565b600082019050919050565b60006105d06016836106cb565b91506105db8261084f565b602082019050919050565b6105ef81610798565b82525050565b6000610600826105a0565b9150819050919050565b600060208201905061061f6000830184610528565b92915050565b6000602082019050818103600083015261063e81610537565b9050919050565b6000602082019050818103600083015261065e8161055a565b9050919050565b6000602082019050818103600083015261067e8161057d565b9050919050565b6000602082019050818103600083015261069e816105c3565b9050919050565b60006020820190506106ba60008301846105e6565b92915050565b600081905092915050565b600082825260208201905092915050565b60006106e782610798565b91506106f283610798565b9250827fffffffffffffffffffffffffffffffffffffffffffffffffffffffffffffffff03821115610727576107266107a2565b5b828201905092915050565b600061073d82610798565b915061074883610798565b92508282101561075b5761075a6107a2565b5b828203905092915050565b600061077182610778565b9050919050565b600073ffffffffffffffffffffffffffffffffffffffff82169050919050565b6000819050919050565b7f4e487b7100000000000000000000000000000000000000000000000000000000600052601160045260246000fd5b7f496e76616c6964207769746864726177616c20616d6f756e7400000000000000600082015250565b7f5769746864726177206661696c65640000000000000000000000000000000000600082015250565b7f496e73756666696369656e7420616d6f756e7420746f20776974686472617700600082015250565b50565b7f496e636f72726563742066756e647320616d6f756e7400000000000000000000600082015250565b61088181610766565b811461088c57600080fd5b50565b61089881610798565b81146108a357600080fd5b5056fea264697066735822122060ef0ed7503652256bf65a26b8f970e719033d377e23dde32b1eb116838709f364736f6c63430008040033",
  "immutableReferences": {},
  "source": "// SPDX-License-Identifier: UNLICENSED\n\npragma solidity >=0.8.4;\n\nimport \"@openzeppelin/contracts/token/ERC20/utils/SafeERC20.sol\";\nimport \"@openzeppelin/contracts/utils/Address.sol\";\nimport \"./interfaces/IDefi.sol\";\n\ncontract Defi is IDefi {\n    using Address for address;\n\n    mapping(address => uint256) public bnbBank;\n\n    address public constant BNB_ADDRESS =\n        0xEeeeeEeeeEeEeeEeEeEeeEEEeeeeEeeeeeeeEEeE;\n\n    event DepositBnbEvent(address indexed _user, uint256 _amount);\n    event WithdrawBnbEvent(address indexed _user, uint256 _amount);\n\n    function depositBNB(uint256 _amount) external payable override {\n        require(msg.value == _amount, \"Incorrect funds amount\");\n        bnbBank[msg.sender] = bnbBank[msg.sender] + _amount;\n\n        emit DepositBnbEvent(msg.sender, _amount);\n    }\n\n    function withdraw(uint256 _amount) external override {\n        require(_amount != 0, \"Invalid withdrawal amount\");\n        require(\n            bnbBank[msg.sender] >= _amount,\n            \"Insufficient amount to withdraw\"\n        );\n\n        bnbBank[msg.sender] = bnbBank[msg.sender] - _amount;\n\n        (bool success, ) = msg.sender.call{value: _amount}(\"\");\n        require(success, \"Withdraw failed\");\n\n        emit WithdrawBnbEvent(msg.sender, _amount);\n    }\n}\n",
  "sourcePath": "D:\\Flashloan\\Flashloans\\contracts\\Defi.sol",
  "compiler": {
    "name": "solc",
    "version": "0.8.4+commit.c7e474f2.Emscripten.clang"
  },
  "schemaVersion": "3.4.3",
  "updatedAt": "2021-11-15T08:56:59.368Z",
  "devdoc": {
    "kind": "dev",
    "methods": {},
    "version": 1
  },
  "userdoc": {
    "kind": "user",
    "methods": {},
    "version": 1
  }
}