{
  "contractName": "Demo",
  "abi": [
    {
      "inputs": [
        {
          "internalType": "contract ILendingPoolAddressesProvider",
          "name": "_addressesProvider",
          "type": "address"
        },
        {
          "internalType": "address",
          "name": "_defi",
          "type": "address"
        }
      ],
      "stateMutability": "nonpayable",
      "type": "constructor"
    },
    {
      "stateMutability": "payable",
      "type": "fallback"
    },
    {
      "inputs": [],
      "name": "BNB_ADDRESS",
      "outputs": [
        {
          "internalType": "address",
          "name": "",
          "type": "address"
        }
      ],
      "stateMutability": "view",
      "type": "function"
    },
    {
      "inputs": [],
      "name": "addressesProvider",
      "outputs": [
        {
          "internalType": "contract ILendingPoolAddressesProvider",
          "name": "",
          "type": "address"
        }
      ],
      "stateMutability": "view",
      "type": "function"
    },
    {
      "inputs": [],
      "name": "defi",
      "outputs": [
        {
          "internalType": "address",
          "name": "",
          "type": "address"
        }
      ],
      "stateMutability": "view",
      "type": "function"
    },
    {
      "stateMutability": "payable",
      "type": "receive"
    },
    {
      "inputs": [
        {
          "internalType": "address",
          "name": "_reserve",
          "type": "address"
        },
        {
          "internalType": "uint256",
          "name": "_amount",
          "type": "uint256"
        },
        {
          "internalType": "uint256",
          "name": "_fee",
          "type": "uint256"
        },
        {
          "internalType": "bytes",
          "name": "_params",
          "type": "bytes"
        }
      ],
      "name": "executeOperation",
      "outputs": [],
      "stateMutability": "nonpayable",
      "type": "function"
    },
    {
      "inputs": [
        {
          "internalType": "uint256",
          "name": "_amount",
          "type": "uint256"
        }
      ],
      "name": "flashloanBnb",
      "outputs": [],
      "stateMutability": "nonpayable",
      "type": "function"
    }
  ],
  "bytecode": "0x60806040523480156200001157600080fd5b50604051620014e5380380620014e58339818101604052810190620000379190620000f0565b81806000806101000a81548173ffffffffffffffffffffffffffffffffffffffff021916908373ffffffffffffffffffffffffffffffffffffffff1602179055505080600160006101000a81548173ffffffffffffffffffffffffffffffffffffffff021916908373ffffffffffffffffffffffffffffffffffffffff1602179055505050620001ad565b600081519050620000d38162000179565b92915050565b600081519050620000ea8162000193565b92915050565b600080604083850312156200010457600080fd5b60006200011485828601620000d9565b92505060206200012785828601620000c2565b9150509250929050565b60006200013e8262000159565b9050919050565b6000620001528262000131565b9050919050565b600073ffffffffffffffffffffffffffffffffffffffff82169050919050565b620001848162000131565b81146200019057600080fd5b50565b6200019e8162000145565b8114620001aa57600080fd5b50565b61132880620001bd6000396000f3fe60806040526004361061006b576000357c01000000000000000000000000000000000000000000000000000000009004806338c0f07314610074578063407eed6a1461009f57806370de629f146100c8578063c72c4d10146100f3578063ee8725581461011e57610072565b3661007257005b005b34801561008057600080fd5b50610089610147565b6040516100969190610e8b565b60405180910390f35b3480156100ab57600080fd5b506100c660048036038101906100c19190610c8e565b61016d565b005b3480156100d457600080fd5b506100dd6102e6565b6040516100ea9190610e8b565b60405180910390f35b3480156100ff57600080fd5b506101086102fe565b6040516101159190610f1b565b60405180910390f35b34801561012a57600080fd5b5061014560048036038101906101409190610be5565b610322565b005b600160009054906101000a900473ffffffffffffffffffffffffffffffffffffffff1681565b600060405180602001604052806000815250905060008060009054906101000a900473ffffffffffffffffffffffffffffffffffffffff1673ffffffffffffffffffffffffffffffffffffffff16630261bf8b6040518163ffffffff167c010000000000000000000000000000000000000000000000000000000002815260040160206040518083038186803b15801561020657600080fd5b505afa15801561021a573d6000803e3d6000fd5b505050506040513d601f19601f8201168201806040525081019061023e9190610b93565b90508073ffffffffffffffffffffffffffffffffffffffff16635cffe9de3073eeeeeeeeeeeeeeeeeeeeeeeeeeeeeeeeeeeeeeee86866040518563ffffffff167c01000000000000000000000000000000000000000000000000000000000281526004016102af9493929190610ea6565b600060405180830381600087803b1580156102c957600080fd5b505af11580156102dd573d6000803e3d6000fd5b50505050505050565b73eeeeeeeeeeeeeeeeeeeeeeeeeeeeeeeeeeeeeeee81565b60008054906101000a900473ffffffffffffffffffffffffffffffffffffffff1681565b61032c30866104c7565b84111561036e576040517f08c379a000000000000000000000000000000000000000000000000000000000815260040161036590610f78565b60405180910390fd5b6000600160009054906101000a900473ffffffffffffffffffffffffffffffffffffffff1690508073ffffffffffffffffffffffffffffffffffffffff16639da90f1986876040518363ffffffff167c01000000000000000000000000000000000000000000000000000000000281526004016103eb9190610fd8565b6000604051808303818588803b15801561040457600080fd5b505af1158015610418573d6000803e3d6000fd5b50505050508073ffffffffffffffffffffffffffffffffffffffff16632e1a7d4d866040518263ffffffff167c01000000000000000000000000000000000000000000000000000000000281526004016104729190610fd8565b600060405180830381600087803b15801561048c57600080fd5b505af11580156104a0573d6000803e3d6000fd5b50505050600084866104b29190611036565b90506104be87826105de565b50505050505050565b600073eeeeeeeeeeeeeeeeeeeeeeeeeeeeeeeeeeeeeeee73ffffffffffffffffffffffffffffffffffffffff168273ffffffffffffffffffffffffffffffffffffffff161415610530578273ffffffffffffffffffffffffffffffffffffffff163190506105d8565b8173ffffffffffffffffffffffffffffffffffffffff166370a08231846040518263ffffffff167c01000000000000000000000000000000000000000000000000000000000281526004016105859190610e8b565b60206040518083038186803b15801561059d57600080fd5b505afa1580156105b1573d6000803e3d6000fd5b505050506040513d601f19601f820116820180604052508101906105d59190610cb7565b90505b92915050565b60008060009054906101000a900473ffffffffffffffffffffffffffffffffffffffff1673ffffffffffffffffffffffffffffffffffffffff1663ed6ff7606040518163ffffffff167c010000000000000000000000000000000000000000000000000000000002815260040160206040518083038186803b15801561066357600080fd5b505afa158015610677573d6000803e3d6000fd5b505050506040513d601f19601f8201168201806040525081019061069b9190610bbc565b90506106a88184846106ad565b505050565b73eeeeeeeeeeeeeeeeeeeeeeeeeeeeeeeeeeeeeeee73ffffffffffffffffffffffffffffffffffffffff168273ffffffffffffffffffffffffffffffffffffffff1614156107745760008373ffffffffffffffffffffffffffffffffffffffff168261c3509060405161071f90610e76565b600060405180830381858888f193505050503d806000811461075d576040519150601f19603f3d011682016040523d82523d6000602084013e610762565b606091505b50509050801561077257506107a0565b505b61079f83828473ffffffffffffffffffffffffffffffffffffffff166107a59092919063ffffffff16565b5b505050565b6108428363a9059cbb7c01000000000000000000000000000000000000000000000000000000000284846040516024016107e0929190610ef2565b604051602081830303815290604052907bffffffffffffffffffffffffffffffffffffffffffffffffffffffff19166020820180517bffffffffffffffffffffffffffffffffffffffffffffffffffffffff8381831617835250505050610847565b505050565b60006108a9826040518060400160405280602081526020017f5361666545524332303a206c6f772d6c6576656c2063616c6c206661696c65648152508573ffffffffffffffffffffffffffffffffffffffff1661090e9092919063ffffffff16565b905060008151111561090957808060200190518101906108c99190610c65565b610908576040517f08c379a00000000000000000000000000000000000000000000000000000000081526004016108ff90610fb8565b60405180910390fd5b5b505050565b606061091d8484600085610926565b90509392505050565b6060823073ffffffffffffffffffffffffffffffffffffffff16311015610982576040517f08c379a000000000000000000000000000000000000000000000000000000000815260040161097990610f58565b60405180910390fd5b61098b85610a51565b6109ca576040517f08c379a00000000000000000000000000000000000000000000000000000000081526004016109c190610f98565b60405180910390fd5b6000808673ffffffffffffffffffffffffffffffffffffffff1685876040516109f39190610e5f565b60006040518083038185875af1925050503d8060008114610a30576040519150601f19603f3d011682016040523d82523d6000602084013e610a35565b606091505b5091509150610a45828286610a64565b92505050949350505050565b600080823b905060008111915050919050565b60608315610a7457829050610ac4565b600083511115610a875782518084602001fd5b816040517f08c379a0000000000000000000000000000000000000000000000000000000008152600401610abb9190610f36565b60405180910390fd5b9392505050565b600081359050610ada81611296565b92915050565b600081519050610aef81611296565b92915050565b600081519050610b04816112ad565b92915050565b600081519050610b19816112c4565b92915050565b60008083601f840112610b3157600080fd5b8235905067ffffffffffffffff811115610b4a57600080fd5b602083019150836001820283011115610b6257600080fd5b9250929050565b600081359050610b78816112db565b92915050565b600081519050610b8d816112db565b92915050565b600060208284031215610ba557600080fd5b6000610bb384828501610ae0565b91505092915050565b600060208284031215610bce57600080fd5b6000610bdc84828501610af5565b91505092915050565b600080600080600060808688031215610bfd57600080fd5b6000610c0b88828901610acb565b9550506020610c1c88828901610b69565b9450506040610c2d88828901610b69565b935050606086013567ffffffffffffffff811115610c4a57600080fd5b610c5688828901610b1f565b92509250509295509295909350565b600060208284031215610c7757600080fd5b6000610c8584828501610b0a565b91505092915050565b600060208284031215610ca057600080fd5b6000610cae84828501610b69565b91505092915050565b600060208284031215610cc957600080fd5b6000610cd784828501610b7e565b91505092915050565b610ce98161108c565b82525050565b6000610cfa82610ff3565b610d048185611009565b9350610d1481856020860161110a565b610d1d8161116c565b840191505092915050565b6000610d3382610ff3565b610d3d818561101a565b9350610d4d81856020860161110a565b80840191505092915050565b610d62816110e6565b82525050565b6000610d7382610ffe565b610d7d8185611025565b9350610d8d81856020860161110a565b610d968161116c565b840191505092915050565b6000610dae602683611025565b9150610db98261117d565b604082019050919050565b6000610dd1602e83611025565b9150610ddc826111cc565b604082019050919050565b6000610df460008361101a565b9150610dff8261121b565b600082019050919050565b6000610e17601d83611025565b9150610e228261121e565b602082019050919050565b6000610e3a602a83611025565b9150610e4582611247565b604082019050919050565b610e59816110dc565b82525050565b6000610e6b8284610d28565b915081905092915050565b6000610e8182610de7565b9150819050919050565b6000602082019050610ea06000830184610ce0565b92915050565b6000608082019050610ebb6000830187610ce0565b610ec86020830186610ce0565b610ed56040830185610e50565b8181036060830152610ee78184610cef565b905095945050505050565b6000604082019050610f076000830185610ce0565b610f146020830184610e50565b9392505050565b6000602082019050610f306000830184610d59565b92915050565b60006020820190508181036000830152610f508184610d68565b905092915050565b60006020820190508181036000830152610f7181610da1565b9050919050565b60006020820190508181036000830152610f9181610dc4565b9050919050565b60006020820190508181036000830152610fb181610e0a565b9050919050565b60006020820190508181036000830152610fd181610e2d565b9050919050565b6000602082019050610fed6000830184610e50565b92915050565b600081519050919050565b600081519050919050565b600082825260208201905092915050565b600081905092915050565b600082825260208201905092915050565b6000611041826110dc565b915061104c836110dc565b9250827fffffffffffffffffffffffffffffffffffffffffffffffffffffffffffffffff038211156110815761108061113d565b5b828201905092915050565b6000611097826110bc565b9050919050565b60006110a9826110bc565b9050919050565b60008115159050919050565b600073ffffffffffffffffffffffffffffffffffffffff82169050919050565b6000819050919050565b60006110f1826110f8565b9050919050565b6000611103826110bc565b9050919050565b60005b8381101561112857808201518184015260208101905061110d565b83811115611137576000848401525b50505050565b7f4e487b7100000000000000000000000000000000000000000000000000000000600052601160045260246000fd5b6000601f19601f8301169050919050565b7f416464726573733a20696e73756666696369656e742062616c616e636520666f60008201527f722063616c6c0000000000000000000000000000000000000000000000000000602082015250565b7f496e76616c69642062616c616e63652c207761732074686520666c6173684c6f60008201527f616e207375636365737366756c3f000000000000000000000000000000000000602082015250565b50565b7f416464726573733a2063616c6c20746f206e6f6e2d636f6e7472616374000000600082015250565b7f5361666545524332303a204552433230206f7065726174696f6e20646964206e60008201527f6f74207375636365656400000000000000000000000000000000000000000000602082015250565b61129f8161108c565b81146112aa57600080fd5b50565b6112b68161109e565b81146112c157600080fd5b50565b6112cd816110b0565b81146112d857600080fd5b50565b6112e4816110dc565b81146112ef57600080fd5b5056fea26469706673582212206b709cd982db45d478607f76cdaa1ce191c3f5f949e9fe7cb509f7ac423c5ba764736f6c63430008040033",
  "immutableReferences": {},
  "source": "// SPDX-License-Identifier: UNLICENSED\n\npragma solidity >=0.8.4;\n\nimport \"./base/FlashLoanReceiverBase.sol\";\nimport \"./interfaces/ILendingPoolAddressesProvider.sol\";\nimport \"./interfaces/ILendingPool.sol\";\nimport \"./interfaces/IDefi.sol\";\n\ncontract Demo is FlashLoanReceiverBase {\n    address public defi;\n\n    constructor(ILendingPoolAddressesProvider _addressesProvider, address _defi)\n        FlashLoanReceiverBase(_addressesProvider)\n    {\n        defi = _defi;\n    }\n\n    function executeOperation(\n        address _reserve,\n        uint256 _amount,\n        uint256 _fee,\n        bytes calldata _params\n    ) external override {\n        require(\n            _amount <= getBalanceInternal(address(this), _reserve),\n            \"Invalid balance, was the flashLoan successful?\"\n        );\n\n        //\n        // Your logic goes here.\n        // !! Ensure that *this contract* has enough of `_reserve` funds to payback the `_fee` !!\n        //\n\n        IDefi app = IDefi(defi);\n        // Todo: Deposit into defi smart contract\n        app.depositBNB{value: _amount}(_amount);\n\n        // Todo: Withdraw from defi smart contract\n        app.withdraw(_amount);\n\n        uint256 totalDebt = _amount + _fee;\n        transferFundsBackToPoolInternal(_reserve, totalDebt);\n    }\n\n    function flashloanBnb(uint256 _amount) public {\n        bytes memory data = \"\";\n\n        ILendingPool lendingPool = ILendingPool(\n            addressesProvider.getLendingPool()\n        );\n        lendingPool.flashLoan(address(this), BNB_ADDRESS, _amount, data);\n    }\n}\n",
  "sourcePath": "D:\\Flashloan\\Flashloans\\contracts\\Demo.sol",
  "compiler": {
    "name": "solc",
    "version": "0.8.4+commit.c7e474f2.Emscripten.clang"
  },
  "schemaVersion": "3.4.3",
  "updatedAt": "2021-11-15T08:56:59.379Z",
  "devdoc": {
    "kind": "dev",
    "methods": {},
    "version": 1
  },
  "userdoc": {
    "kind": "user",
    "methods": {},
    "version": 1
  }
}