{
  "contractName": "FlashLoanReceiverBase",
  "abi": [
    {
      "inputs": [
        {
          "internalType": "contract ILendingPoolAddressesProvider",
          "name": "_provider",
          "type": "address"
        }
      ],
      "stateMutability": "nonpayable",
      "type": "constructor"
    },
    {
      "stateMutability": "payable",
      "type": "fallback"
    },
    {
      "inputs": [],
      "name": "BNB_ADDRESS",
      "outputs": [
        {
          "internalType": "address",
          "name": "",
          "type": "address"
        }
      ],
      "stateMutability": "view",
      "type": "function"
    },
    {
      "inputs": [],
      "name": "addressesProvider",
      "outputs": [
        {
          "internalType": "contract ILendingPoolAddressesProvider",
          "name": "",
          "type": "address"
        }
      ],
      "stateMutability": "view",
      "type": "function"
    },
    {
      "stateMutability": "payable",
      "type": "receive"
    },
    {
      "inputs": [
        {
          "internalType": "address",
          "name": "_reserve",
          "type": "address"
        },
        {
          "internalType": "uint256",
          "name": "_amount",
          "type": "uint256"
        },
        {
          "internalType": "uint256",
          "name": "_fee",
          "type": "uint256"
        },
        {
          "internalType": "bytes",
          "name": "_params",
          "type": "bytes"
        }
      ],
      "name": "executeOperation",
      "outputs": [],
      "stateMutability": "nonpayable",
      "type": "function"
    }
  ],
  "bytecode": "0x608060405234801561001057600080fd5b5060405161044c38038061044c8339818101604052810190610032919061008d565b806000806101000a81548173ffffffffffffffffffffffffffffffffffffffff021916908373ffffffffffffffffffffffffffffffffffffffff16021790555050610111565b600081519050610087816100fa565b92915050565b60006020828403121561009f57600080fd5b60006100ad84828501610078565b91505092915050565b60006100c1826100da565b9050919050565b60006100d3826100b6565b9050919050565b600073ffffffffffffffffffffffffffffffffffffffff82169050919050565b610103816100c8565b811461010e57600080fd5b50565b61032c806101206000396000f3fe608060405260043610610055576000357c01000000000000000000000000000000000000000000000000000000009004806370de629f1461005e578063c72c4d1014610089578063ee872558146100b45761005c565b3661005c57005b005b34801561006a57600080fd5b506100736100dd565b6040516100809190610232565b60405180910390f35b34801561009557600080fd5b5061009e6100f5565b6040516100ab919061024d565b60405180910390f35b3480156100c057600080fd5b506100db60048036038101906100d69190610194565b610119565b005b73eeeeeeeeeeeeeeeeeeeeeeeeeeeeeeeeeeeeeeee81565b60008054906101000a900473ffffffffffffffffffffffffffffffffffffffff1681565b5050505050565b60008135905061012f816102c8565b92915050565b60008083601f84011261014757600080fd5b8235905067ffffffffffffffff81111561016057600080fd5b60208301915083600182028301111561017857600080fd5b9250929050565b60008135905061018e816102df565b92915050565b6000806000806000608086880312156101ac57600080fd5b60006101ba88828901610120565b95505060206101cb8882890161017f565b94505060406101dc8882890161017f565b935050606086013567ffffffffffffffff8111156101f957600080fd5b61020588828901610135565b92509250509295509295909350565b61021d81610268565b82525050565b61022c816102a4565b82525050565b60006020820190506102476000830184610214565b92915050565b60006020820190506102626000830184610223565b92915050565b60006102738261027a565b9050919050565b600073ffffffffffffffffffffffffffffffffffffffff82169050919050565b6000819050919050565b60006102af826102b6565b9050919050565b60006102c18261027a565b9050919050565b6102d181610268565b81146102dc57600080fd5b50565b6102e88161029a565b81146102f357600080fd5b5056fea2646970667358221220deb604ec5425acf88462827a40e244153caa6583024c3bad843ed235299b1f0f64736f6c63430008040033",
  "immutableReferences": {},
  "source": "// SPDX-License-Identifier: UNLICENSED\n\npragma solidity >=0.8.4;\n\nimport \"@openzeppelin/contracts/token/ERC20/IERC20.sol\";\nimport \"@openzeppelin/contracts/token/ERC20/utils/SafeERC20.sol\";\nimport \"../interfaces/IFlashLoanReceiver.sol\";\nimport \"../interfaces/ILendingPoolAddressesProvider.sol\";\n\ncontract FlashLoanReceiverBase is IFlashLoanReceiver {\n    using SafeERC20 for IERC20;\n\n    ILendingPoolAddressesProvider public addressesProvider;\n\n    address public constant BNB_ADDRESS =\n        0xEeeeeEeeeEeEeeEeEeEeeEEEeeeeEeeeeeeeEEeE;\n\n    constructor(ILendingPoolAddressesProvider _provider) {\n        addressesProvider = _provider;\n    }\n\n    fallback() external payable {}\n\n    receive() external payable {}\n\n    function executeOperation(\n        address _reserve,\n        uint256 _amount,\n        uint256 _fee,\n        bytes calldata _params\n    ) external virtual override {}\n\n    function transferFundsBackToPoolInternal(address _reserve, uint256 _amount)\n        internal\n    {\n        address payable core = addressesProvider.getLendingPoolCore();\n        transferInternal(core, _reserve, _amount);\n    }\n\n    function transferInternal(\n        address payable _destination,\n        address _reserve,\n        uint256 _amount\n    ) internal {\n        if (_reserve == BNB_ADDRESS) {\n            //solium-disable-next-line\n            (bool success, ) = _destination.call{value: _amount, gas: 50000}(\n                \"\"\n            );\n            if (success) return;\n        }\n        IERC20(_reserve).safeTransfer(_destination, _amount);\n    }\n\n    function getBalanceInternal(address _target, address _reserve)\n        internal\n        view\n        returns (uint256)\n    {\n        if (_reserve == BNB_ADDRESS) {\n            return _target.balance;\n        }\n        return IERC20(_reserve).balanceOf(_target);\n    }\n}\n",
  "sourcePath": "D:\\Flashloan\\Flashloans\\contracts\\base\\FlashLoanReceiverBase.sol",
  "compiler": {
    "name": "solc",
    "version": "0.8.4+commit.c7e474f2.Emscripten.clang"
  },
  "schemaVersion": "3.4.3",
  "updatedAt": "2021-11-15T08:56:59.390Z",
  "devdoc": {
    "kind": "dev",
    "methods": {},
    "version": 1
  },
  "userdoc": {
    "kind": "user",
    "methods": {},
    "version": 1
  }
}