{
  "contractName": "FlashloanMoneyLego",
  "abi": [
    {
      "inputs": [],
      "stateMutability": "nonpayable",
      "type": "constructor"
    },
    {
      "anonymous": false,
      "inputs": [
        {
          "indexed": false,
          "internalType": "uint256",
          "name": "amount",
          "type": "uint256"
        }
      ],
      "name": "LogAmount",
      "type": "event"
    },
    {
      "anonymous": false,
      "inputs": [
        {
          "components": [
            {
              "internalType": "address",
              "name": "who",
              "type": "address"
            },
            {
              "internalType": "uint256",
              "name": "amount",
              "type": "uint256"
            },
            {
              "components": [
                {
                  "internalType": "address",
                  "name": "tokenIn",
                  "type": "address"
                },
                {
                  "internalType": "address",
                  "name": "tokenOut",
                  "type": "address"
                },
                {
                  "internalType": "uint256",
                  "name": "amountIn",
                  "type": "uint256"
                },
                {
                  "internalType": "address",
                  "name": "factory",
                  "type": "address"
                },
                {
                  "internalType": "enum FlashloanMoneyLego.version",
                  "name": "ver",
                  "type": "uint8"
                }
              ],
              "internalType": "struct FlashloanMoneyLego.blocker[]",
              "name": "data",
              "type": "tuple[]"
            }
          ],
          "indexed": false,
          "internalType": "struct FlashloanMoneyLego.actioner",
          "name": "action",
          "type": "tuple"
        }
      ],
      "name": "LogInput",
      "type": "event"
    },
    {
      "anonymous": false,
      "inputs": [
        {
          "components": [
            {
              "internalType": "address",
              "name": "tokenIn",
              "type": "address"
            },
            {
              "internalType": "address",
              "name": "tokenOut",
              "type": "address"
            },
            {
              "internalType": "uint256",
              "name": "amountIn",
              "type": "uint256"
            },
            {
              "internalType": "address",
              "name": "factory",
              "type": "address"
            },
            {
              "internalType": "enum FlashloanMoneyLego.version",
              "name": "ver",
              "type": "uint8"
            }
          ],
          "indexed": false,
          "internalType": "struct FlashloanMoneyLego.blocker",
          "name": "name",
          "type": "tuple"
        }
      ],
      "name": "Logger",
      "type": "event"
    },
    {
      "stateMutability": "payable",
      "type": "fallback",
      "payable": true
    },
    {
      "inputs": [],
      "name": "AaveLendingPoolAddressProviderAddress",
      "outputs": [
        {
          "internalType": "address",
          "name": "",
          "type": "address"
        }
      ],
      "stateMutability": "view",
      "type": "function",
      "constant": true
    },
    {
      "inputs": [],
      "name": "ETH_ADDRESS",
      "outputs": [
        {
          "internalType": "address",
          "name": "",
          "type": "address"
        }
      ],
      "stateMutability": "view",
      "type": "function",
      "constant": true
    },
    {
      "inputs": [],
      "name": "addressesProvider",
      "outputs": [
        {
          "internalType": "contract ILendingPoolAddressesProvider",
          "name": "",
          "type": "address"
        }
      ],
      "stateMutability": "view",
      "type": "function",
      "constant": true
    },
    {
      "inputs": [
        {
          "internalType": "address",
          "name": "",
          "type": "address"
        }
      ],
      "name": "balances",
      "outputs": [
        {
          "internalType": "uint256",
          "name": "",
          "type": "uint256"
        }
      ],
      "stateMutability": "view",
      "type": "function",
      "constant": true
    },
    {
      "inputs": [
        {
          "internalType": "address",
          "name": "",
          "type": "address"
        }
      ],
      "name": "coiner",
      "outputs": [
        {
          "internalType": "uint256",
          "name": "",
          "type": "uint256"
        }
      ],
      "stateMutability": "view",
      "type": "function",
      "constant": true
    },
    {
      "stateMutability": "payable",
      "type": "receive",
      "payable": true
    },
    {
      "inputs": [
        {
          "internalType": "address",
          "name": "_reserve",
          "type": "address"
        },
        {
          "internalType": "uint256",
          "name": "_amount",
          "type": "uint256"
        },
        {
          "internalType": "uint256",
          "name": "_fee",
          "type": "uint256"
        },
        {
          "internalType": "bytes",
          "name": "_params",
          "type": "bytes"
        }
      ],
      "name": "executeOperation",
      "outputs": [],
      "stateMutability": "nonpayable",
      "type": "function"
    },
    {
      "inputs": [
        {
          "components": [
            {
              "internalType": "address",
              "name": "who",
              "type": "address"
            },
            {
              "internalType": "uint256",
              "name": "amount",
              "type": "uint256"
            },
            {
              "components": [
                {
                  "internalType": "address",
                  "name": "tokenIn",
                  "type": "address"
                },
                {
                  "internalType": "address",
                  "name": "tokenOut",
                  "type": "address"
                },
                {
                  "internalType": "uint256",
                  "name": "amountIn",
                  "type": "uint256"
                },
                {
                  "internalType": "address",
                  "name": "factory",
                  "type": "address"
                },
                {
                  "internalType": "enum FlashloanMoneyLego.version",
                  "name": "ver",
                  "type": "uint8"
                }
              ],
              "internalType": "struct FlashloanMoneyLego.blocker[]",
              "name": "data",
              "type": "tuple[]"
            }
          ],
          "internalType": "struct FlashloanMoneyLego.actioner",
          "name": "action",
          "type": "tuple"
        }
      ],
      "name": "initateFlashLoan",
      "outputs": [],
      "stateMutability": "nonpayable",
      "type": "function"
    },
    {
      "inputs": [
        {
          "internalType": "address",
          "name": "factory",
          "type": "address"
        },
        {
          "internalType": "uint256",
          "name": "amountIn",
          "type": "uint256"
        },
        {
          "internalType": "address[]",
          "name": "path",
          "type": "address[]"
        }
      ],
      "name": "getAmountOutMin",
      "outputs": [
        {
          "internalType": "uint256",
          "name": "",
          "type": "uint256"
        }
      ],
      "stateMutability": "view",
      "type": "function",
      "constant": true
    },
    {
      "inputs": [
        {
          "internalType": "address",
          "name": "tokenIn",
          "type": "address"
        },
        {
          "internalType": "address",
          "name": "spender",
          "type": "address"
        },
        {
          "internalType": "uint256",
          "name": "amount",
          "type": "uint256"
        }
      ],
      "name": "approve",
      "outputs": [],
      "stateMutability": "nonpayable",
      "type": "function"
    }
  ],
  "bytecode": "0x60806040527324a42fd28c976a61df5d00d0599c34c4f90748c86000806101000a81548173ffffffffffffffffffffffffffffffffffffffff021916908373ffffffffffffffffffffffffffffffffffffffff16021790555034801561006457600080fd5b5073506b0b2cf20faa8f38a4e2b524ee43e1f4458cc56000806101000a81548173ffffffffffffffffffffffffffffffffffffffff021916908373ffffffffffffffffffffffffffffffffffffffff1602179055506129e0806100c86000396000f3fe60806040526004361061008a5760003560e01c8063a734f06e11610059578063a734f06e14610161578063c72c4d101461018c578063e1f21c67146101b7578063ee872558146101e0578063f07ded521461020957610091565b806327e235e31461009357806329303f88146100d05780633f6dc33b1461010d5780639aa213971461013857610091565b3661009157005b005b34801561009f57600080fd5b506100ba60048036038101906100b59190611bb4565b610246565b6040516100c79190612598565b60405180910390f35b3480156100dc57600080fd5b506100f760048036038101906100f29190611c7e565b61025e565b6040516101049190612598565b60405180910390f35b34801561011957600080fd5b50610122610316565b60405161012f91906123a5565b60405180910390f35b34801561014457600080fd5b5061015f600480360381019061015a9190611e10565b61032e565b005b34801561016d57600080fd5b50610176610610565b60405161018391906123a5565b60405180910390f35b34801561019857600080fd5b506101a1610628565b6040516101ae919061249b565b60405180910390f35b3480156101c357600080fd5b506101de60048036038101906101d99190611c2f565b61064d565b005b3480156101ec57600080fd5b5061020760048036038101906102029190611ce5565b6106e0565b005b34801561021557600080fd5b50610230600480360381019061022b9190611bb4565b61134d565b60405161023d9190612598565b60405180910390f35b60016020528060005260406000206000915090505481565b600060608473ffffffffffffffffffffffffffffffffffffffff1663d06ca61f85856040518363ffffffff1660e01b815260040161029d9291906125b3565b60006040518083038186803b1580156102b557600080fd5b505afa1580156102c9573d6000803e3d6000fd5b505050506040513d6000823e3d601f19601f820116820180604052508101906102f29190611da6565b90508060018451038151811061030457fe5b60200260200101519150509392505050565b73506b0b2cf20faa8f38a4e2b524ee43e1f4458cc581565b606081604001516040516020016103459190612479565b604051602081830303815290604052905060008060009054906101000a900473ffffffffffffffffffffffffffffffffffffffff1673ffffffffffffffffffffffffffffffffffffffff16630261bf8b6040518163ffffffff1660e01b815260040160206040518083038186803b1580156103bf57600080fd5b505afa1580156103d3573d6000803e3d6000fd5b505050506040513d601f19601f820116820180604052508101906103f79190611bdd565b90507f9a219d8e71dbcc9778cfaaf7bd24d3b483052515641c65167bbc9a271d6e5d61836040516104289190612576565b60405180910390a18073ffffffffffffffffffffffffffffffffffffffff16635cffe9de3085600001518660200151866040518563ffffffff1660e01b815260040161047794939291906123db565b600060405180830381600087803b15801561049157600080fd5b505af11580156104a5573d6000803e3d6000fd5b505050506000836000015173ffffffffffffffffffffffffffffffffffffffff166370a08231306040518263ffffffff1660e01b81526004016104e891906123c0565b60206040518083038186803b15801561050057600080fd5b505afa158015610514573d6000803e3d6000fd5b505050506040513d601f19601f820116820180604052508101906105389190611e51565b9050836000015173ffffffffffffffffffffffffffffffffffffffff1663a9059cbb33836040518363ffffffff1660e01b8152600401610579929190612427565b602060405180830381600087803b15801561059357600080fd5b505af11580156105a7573d6000803e3d6000fd5b505050506040513d601f19601f820116820180604052508101906105cb9190611de7565b61060a576040517f08c379a000000000000000000000000000000000000000000000000000000000815260040161060190612516565b60405180910390fd5b50505050565b73eeeeeeeeeeeeeeeeeeeeeeeeeeeeeeeeeeeeeeee81565b6000809054906101000a900473ffffffffffffffffffffffffffffffffffffffff1681565b8273ffffffffffffffffffffffffffffffffffffffff1663095ea7b383836040518363ffffffff1660e01b8152600401610688929190612450565b602060405180830381600087803b1580156106a257600080fd5b505af11580156106b6573d6000803e3d6000fd5b505050506040513d601f19601f820116820180604052508101906106da9190611de7565b50505050565b6106ea3086611365565b84111561072c576040517f08c379a0000000000000000000000000000000000000000000000000000000008152600401610723906124f6565b60405180910390fd5b60008390506000610bb8420190506000879050606085858101906107509190611d65565b905087600160008473ffffffffffffffffffffffffffffffffffffffff1673ffffffffffffffffffffffffffffffffffffffff1681526020019081526020016000208190555060008090505b815181101561125d57600060028111156107b257fe5b8282815181106107be57fe5b60200260200101516080015160028111156107d557fe5b1415610de8578181815181106107e757fe5b60200260200101516000015173ffffffffffffffffffffffffffffffffffffffff1663095ea7b383838151811061081a57fe5b60200260200101516060015173ffffffffffffffffffffffffffffffffffffffff166306f2bf6285858151811061084d57fe5b6020026020010151600001516040518263ffffffff1660e01b815260040161087591906123a5565b60206040518083038186803b15801561088d57600080fd5b505afa1580156108a1573d6000803e3d6000fd5b505050506040513d601f19601f820116820180604052508101906108c59190611bdd565b600160008686815181106108d557fe5b60200260200101516000015173ffffffffffffffffffffffffffffffffffffffff1673ffffffffffffffffffffffffffffffffffffffff168152602001908152602001600020546040518363ffffffff1660e01b8152600401610939929190612450565b602060405180830381600087803b15801561095357600080fd5b505af1158015610967573d6000803e3d6000fd5b505050506040513d601f19601f8201168201806040525081019061098b9190611de7565b508273ffffffffffffffffffffffffffffffffffffffff168282815181106109af57fe5b60200260200101516020015173ffffffffffffffffffffffffffffffffffffffff1614610bec578181815181106109e257fe5b60200260200101516060015173ffffffffffffffffffffffffffffffffffffffff166306f2bf62838381518110610a1557fe5b6020026020010151600001516040518263ffffffff1660e01b8152600401610a3d91906123a5565b60206040518083038186803b158015610a5557600080fd5b505afa158015610a69573d6000803e3d6000fd5b505050506040513d601f19601f82011682018060405250810190610a8d9190611bdd565b73ffffffffffffffffffffffffffffffffffffffff1663ddf7e1a760016000858581518110610ab857fe5b60200260200101516000015173ffffffffffffffffffffffffffffffffffffffff1673ffffffffffffffffffffffffffffffffffffffff1681526020019081526020016000205460018088878781518110610b0f57fe5b6020026020010151602001516040518663ffffffff1660e01b8152600401610b3b95949392919061263d565b602060405180830381600087803b158015610b5557600080fd5b505af1158015610b69573d6000803e3d6000fd5b505050506040513d601f19601f82011682018060405250810190610b8d9190611e51565b60016000848481518110610b9d57fe5b60200260200101516020015173ffffffffffffffffffffffffffffffffffffffff1673ffffffffffffffffffffffffffffffffffffffff16815260200190815260200160002081905550610de7565b818181518110610bf857fe5b60200260200101516060015173ffffffffffffffffffffffffffffffffffffffff166306f2bf62838381518110610c2b57fe5b6020026020010151600001516040518263ffffffff1660e01b8152600401610c5391906123a5565b60206040518083038186803b158015610c6b57600080fd5b505afa158015610c7f573d6000803e3d6000fd5b505050506040513d601f19601f82011682018060405250810190610ca39190611bdd565b73ffffffffffffffffffffffffffffffffffffffff1663ddf7e1a760016000858581518110610cce57fe5b60200260200101516000015173ffffffffffffffffffffffffffffffffffffffff1673ffffffffffffffffffffffffffffffffffffffff1681526020019081526020016000205460018088878781518110610d2557fe5b6020026020010151602001516040518663ffffffff1660e01b8152600401610d5195949392919061263d565b602060405180830381600087803b158015610d6b57600080fd5b505af1158015610d7f573d6000803e3d6000fd5b505050506040513d601f19601f82011682018060405250810190610da39190611e51565b600160008573ffffffffffffffffffffffffffffffffffffffff1673ffffffffffffffffffffffffffffffffffffffff168152602001908152602001600020819055505b5b60016002811115610df557fe5b828281518110610e0157fe5b6020026020010151608001516002811115610e1857fe5b141561125057818181518110610e2a57fe5b60200260200101516000015173ffffffffffffffffffffffffffffffffffffffff1663095ea7b3838381518110610e5d57fe5b60200260200101516060015160016000868681518110610e7957fe5b60200260200101516000015173ffffffffffffffffffffffffffffffffffffffff1673ffffffffffffffffffffffffffffffffffffffff168152602001908152602001600020546040518363ffffffff1660e01b8152600401610edd929190612450565b602060405180830381600087803b158015610ef757600080fd5b505af1158015610f0b573d6000803e3d6000fd5b505050506040513d601f19601f82011682018060405250810190610f2f9190611de7565b506060600267ffffffffffffffff81118015610f4a57600080fd5b50604051908082528060200260200182016040528015610f795781602001602082028036833780820191505090505b509050828281518110610f8857fe5b60200260200101516000015181600081518110610fa157fe5b602002602001019073ffffffffffffffffffffffffffffffffffffffff16908173ffffffffffffffffffffffffffffffffffffffff1681525050828281518110610fe757fe5b6020026020010151602001518160018151811061100057fe5b602002602001019073ffffffffffffffffffffffffffffffffffffffff16908173ffffffffffffffffffffffffffffffffffffffff1681525050606083838151811061104857fe5b60200260200101516060015173ffffffffffffffffffffffffffffffffffffffff166338ed17396001600087878151811061107f57fe5b60200260200101516000015173ffffffffffffffffffffffffffffffffffffffff1673ffffffffffffffffffffffffffffffffffffffff16815260200190815260200160002054600085306107cf42016040518663ffffffff1660e01b81526004016110ef9594939291906125e3565b600060405180830381600087803b15801561110957600080fd5b505af115801561111d573d6000803e3d6000fd5b505050506040513d6000823e3d601f19601f820116820180604052508101906111469190611da6565b90508060018151811061115557fe5b60200260200101516001600086868151811061116d57fe5b60200260200101516020015173ffffffffffffffffffffffffffffffffffffffff1673ffffffffffffffffffffffffffffffffffffffff168152602001908152602001600020819055507f2b6d16daba1ad641729e00d9e8a460dbd835d4219388907a9a585ab8ac2532cb816000815181106111e557fe5b60200260200101516040516111fa9190612598565b60405180910390a17f2b6d16daba1ad641729e00d9e8a460dbd835d4219388907a9a585ab8ac2532cb8160018151811061123057fe5b60200260200101516040516112459190612598565b60405180910390a150505b808060010191505061079c565b50600088905060008582019050808473ffffffffffffffffffffffffffffffffffffffff166370a08231306040518263ffffffff1660e01b81526004016112a491906123c0565b60206040518083038186803b1580156112bc57600080fd5b505afa1580156112d0573d6000803e3d6000fd5b505050506040513d601f19601f820116820180604052508101906112f49190611e51565b11611334576040517f08c379a000000000000000000000000000000000000000000000000000000000815260040161132b906124b6565b60405180910390fd5b61134084878401611460565b5050505050505050505050565b60026020528060005260406000206000915090505481565b600073eeeeeeeeeeeeeeeeeeeeeeeeeeeeeeeeeeeeeeee73ffffffffffffffffffffffffffffffffffffffff168273ffffffffffffffffffffffffffffffffffffffff1614156113ce578273ffffffffffffffffffffffffffffffffffffffff1631905061145a565b8173ffffffffffffffffffffffffffffffffffffffff166370a08231846040518263ffffffff1660e01b815260040161140791906123a5565b60206040518083038186803b15801561141f57600080fd5b505afa158015611433573d6000803e3d6000fd5b505050506040513d601f19601f820116820180604052508101906114579190611e51565b90505b92915050565b60008060009054906101000a900473ffffffffffffffffffffffffffffffffffffffff1673ffffffffffffffffffffffffffffffffffffffff1663ed6ff7606040518163ffffffff1660e01b815260040160206040518083038186803b1580156114c957600080fd5b505afa1580156114dd573d6000803e3d6000fd5b505050506040513d601f19601f820116820180604052508101906115019190611c06565b905061150e818484611513565b505050565b73eeeeeeeeeeeeeeeeeeeeeeeeeeeeeeeeeeeeeeee73ffffffffffffffffffffffffffffffffffffffff168273ffffffffffffffffffffffffffffffffffffffff1614156115da5760008373ffffffffffffffffffffffffffffffffffffffff168261c3509060405161158590612390565b600060405180830381858888f193505050503d80600081146115c3576040519150601f19603f3d011682016040523d82523d6000602084013e6115c8565b606091505b5050905080156115d85750611606565b505b61160583828473ffffffffffffffffffffffffffffffffffffffff1661160b9092919063ffffffff16565b5b505050565b61168c8363a9059cbb60e01b848460405160240161162a929190612450565b604051602081830303815290604052907bffffffffffffffffffffffffffffffffffffffffffffffffffffffff19166020820180517bffffffffffffffffffffffffffffffffffffffffffffffffffffffff8381831617835250505050611691565b505050565b6116b08273ffffffffffffffffffffffffffffffffffffffff16611803565b6116ef576040517f08c379a00000000000000000000000000000000000000000000000000000000081526004016116e690612556565b60405180910390fd5b600060608373ffffffffffffffffffffffffffffffffffffffff16836040516117189190612379565b6000604051808303816000865af19150503d8060008114611755576040519150601f19603f3d011682016040523d82523d6000602084013e61175a565b606091505b50915091508161179f576040517f08c379a0000000000000000000000000000000000000000000000000000000008152600401611796906124d6565b60405180910390fd5b6000815111156117fd57808060200190518101906117bd9190611de7565b6117fc576040517f08c379a00000000000000000000000000000000000000000000000000000000081526004016117f390612536565b60405180910390fd5b5b50505050565b60008060007fc5d2460186f7233c927e7db2dcc703c0e500b653ca82273b7bfad8045d85a47060001b9050833f915080821415801561184557506000801b8214155b92505050919050565b60008135905061185d8161293e565b92915050565b6000815190506118728161293e565b92915050565b60008151905061188781612955565b92915050565b600082601f83011261189e57600080fd5b81356118b16118ac826126bd565b612690565b915081818352602084019350602081019050838560208402820111156118d657600080fd5b60005b8381101561190657816118ec888261184e565b8452602084019350602083019250506001810190506118d9565b5050505092915050565b600082601f83011261192157600080fd5b813561193461192f826126e5565b612690565b915081818352602084019350602081019050838560a084028201111561195957600080fd5b60005b83811015611989578161196f8882611b02565b845260208401935060a0830192505060018101905061195c565b5050505092915050565b600082601f8301126119a457600080fd5b81516119b76119b28261270d565b612690565b915081818352602084019350602081019050838560208402820111156119dc57600080fd5b60005b83811015611a0c57816119f28882611b9f565b8452602084019350602083019250506001810190506119df565b5050505092915050565b600081519050611a258161296c565b92915050565b60008083601f840112611a3d57600080fd5b8235905067ffffffffffffffff811115611a5657600080fd5b602083019150836001820283011115611a6e57600080fd5b9250929050565b600081359050611a8481612983565b92915050565b600060608284031215611a9c57600080fd5b611aa66060612690565b90506000611ab68482850161184e565b6000830152506020611aca84828501611b8a565b602083015250604082013567ffffffffffffffff811115611aea57600080fd5b611af684828501611910565b60408301525092915050565b600060a08284031215611b1457600080fd5b611b1e60a0612690565b90506000611b2e8482850161184e565b6000830152506020611b428482850161184e565b6020830152506040611b5684828501611b8a565b6040830152506060611b6a8482850161184e565b6060830152506080611b7e84828501611a75565b60808301525092915050565b600081359050611b9981612993565b92915050565b600081519050611bae81612993565b92915050565b600060208284031215611bc657600080fd5b6000611bd48482850161184e565b91505092915050565b600060208284031215611bef57600080fd5b6000611bfd84828501611863565b91505092915050565b600060208284031215611c1857600080fd5b6000611c2684828501611878565b91505092915050565b600080600060608486031215611c4457600080fd5b6000611c528682870161184e565b9350506020611c638682870161184e565b9250506040611c7486828701611b8a565b9150509250925092565b600080600060608486031215611c9357600080fd5b6000611ca18682870161184e565b9350506020611cb286828701611b8a565b925050604084013567ffffffffffffffff811115611ccf57600080fd5b611cdb8682870161188d565b9150509250925092565b600080600080600060808688031215611cfd57600080fd5b6000611d0b8882890161184e565b9550506020611d1c88828901611b8a565b9450506040611d2d88828901611b8a565b935050606086013567ffffffffffffffff811115611d4a57600080fd5b611d5688828901611a2b565b92509250509295509295909350565b600060208284031215611d7757600080fd5b600082013567ffffffffffffffff811115611d9157600080fd5b611d9d84828501611910565b91505092915050565b600060208284031215611db857600080fd5b600082015167ffffffffffffffff811115611dd257600080fd5b611dde84828501611993565b91505092915050565b600060208284031215611df957600080fd5b6000611e0784828501611a16565b91505092915050565b600060208284031215611e2257600080fd5b600082013567ffffffffffffffff811115611e3c57600080fd5b611e4884828501611a8a565b91505092915050565b600060208284031215611e6357600080fd5b6000611e7184828501611b9f565b91505092915050565b6000611e868383611eb9565b60208301905092915050565b6000611e9e83836122f3565b60a08301905092915050565b611eb38161285d565b82525050565b611ec2816127f0565b82525050565b611ed1816127f0565b82525050565b6000611ee282612755565b611eec8185612790565b9350611ef783612735565b8060005b83811015611f28578151611f0f8882611e7a565b9750611f1a83612776565b925050600181019050611efb565b5085935050505092915050565b6000611f4082612760565b611f4a81856127a1565b9350611f5583612745565b8060005b83811015611f86578151611f6d8882611e92565b9750611f7883612783565b925050600181019050611f59565b5085935050505092915050565b6000611f9e82612760565b611fa881856127b2565b9350611fb383612745565b8060005b83811015611fe4578151611fcb8882611e92565b9750611fd683612783565b925050600181019050611fb7565b5085935050505092915050565b6000611ffc8261276b565b61200681856127c3565b93506120168185602086016128ed565b61201f81612920565b840191505092915050565b60006120358261276b565b61203f81856127d4565b935061204f8185602086016128ed565b80840191505092915050565b6120648161286f565b82525050565b61207381612893565b82525050565b612082816128a5565b82525050565b612091816128b7565b82525050565b60006120a4601e836127df565b91507f5468657265206973206e6f2070726f6669742120526576657274696e672100006000830152602082019050919050565b60006120e46020836127df565b91507f5361666545524332303a206c6f772d6c6576656c2063616c6c206661696c65646000830152602082019050919050565b6000612124602e836127df565b91507f496e76616c69642062616c616e63652c207761732074686520666c6173684c6f60008301527f616e207375636365737366756c3f0000000000000000000000000000000000006020830152604082019050919050565b600061218a6000836127d4565b9150600082019050919050565b60006121a46022836127df565b91507f436f756c64206e6f74207472616e73666572206261636b207468652070726f6660008301527f69740000000000000000000000000000000000000000000000000000000000006020830152604082019050919050565b600061220a602a836127df565b91507f5361666545524332303a204552433230206f7065726174696f6e20646964206e60008301527f6f742073756363656564000000000000000000000000000000000000000000006020830152604082019050919050565b6000612270601f836127df565b91507f5361666545524332303a2063616c6c20746f206e6f6e2d636f6e7472616374006000830152602082019050919050565b60006060830160008301516122bb6000860182611eb9565b5060208301516122ce602086018261235b565b50604083015184820360408601526122e68282611f35565b9150508091505092915050565b60a0820160008201516123096000850182611eb9565b50602082015161231c6020850182611eb9565b50604082015161232f604085018261235b565b5060608201516123426060850182611eb9565b506080820151612355608085018261206a565b50505050565b61236481612853565b82525050565b61237381612853565b82525050565b6000612385828461202a565b915081905092915050565b600061239b8261217d565b9150819050919050565b60006020820190506123ba6000830184611ec8565b92915050565b60006020820190506123d56000830184611eaa565b92915050565b60006080820190506123f06000830187611eaa565b6123fd6020830186611ec8565b61240a604083018561236a565b818103606083015261241c8184611ff1565b905095945050505050565b600060408201905061243c6000830185611eaa565b612449602083018461236a565b9392505050565b60006040820190506124656000830185611ec8565b612472602083018461236a565b9392505050565b600060208201905081810360008301526124938184611f93565b905092915050565b60006020820190506124b0600083018461205b565b92915050565b600060208201905081810360008301526124cf81612097565b9050919050565b600060208201905081810360008301526124ef816120d7565b9050919050565b6000602082019050818103600083015261250f81612117565b9050919050565b6000602082019050818103600083015261252f81612197565b9050919050565b6000602082019050818103600083015261254f816121fd565b9050919050565b6000602082019050818103600083015261256f81612263565b9050919050565b6000602082019050818103600083015261259081846122a3565b905092915050565b60006020820190506125ad600083018461236a565b92915050565b60006040820190506125c8600083018561236a565b81810360208301526125da8184611ed7565b90509392505050565b600060a0820190506125f8600083018861236a565b6126056020830187612079565b81810360408301526126178186611ed7565b90506126266060830185611eaa565b612633608083018461236a565b9695505050505050565b600060a082019050612652600083018861236a565b61265f6020830187612088565b61266c6040830186612088565b612679606083018561236a565b6126866080830184611ec8565b9695505050505050565b6000604051905081810181811067ffffffffffffffff821117156126b357600080fd5b8060405250919050565b600067ffffffffffffffff8211156126d457600080fd5b602082029050602081019050919050565b600067ffffffffffffffff8211156126fc57600080fd5b602082029050602081019050919050565b600067ffffffffffffffff82111561272457600080fd5b602082029050602081019050919050565b6000819050602082019050919050565b6000819050602082019050919050565b600081519050919050565b600081519050919050565b600081519050919050565b6000602082019050919050565b6000602082019050919050565b600082825260208201905092915050565b600082825260208201905092915050565b600082825260208201905092915050565b600082825260208201905092915050565b600081905092915050565b600082825260208201905092915050565b60006127fb82612833565b9050919050565b600061280d82612833565b9050919050565b60008115159050919050565b600081905061282e82612931565b919050565b600073ffffffffffffffffffffffffffffffffffffffff82169050919050565b6000819050919050565b6000612868826128c9565b9050919050565b600061287a82612881565b9050919050565b600061288c82612833565b9050919050565b600061289e82612820565b9050919050565b60006128b082612853565b9050919050565b60006128c282612853565b9050919050565b60006128d4826128db565b9050919050565b60006128e682612833565b9050919050565b60005b8381101561290b5780820151818401526020810190506128f0565b8381111561291a576000848401525b50505050565b6000601f19601f8301169050919050565b6003811061293b57fe5b50565b612947816127f0565b811461295257600080fd5b50565b61295e81612802565b811461296957600080fd5b50565b61297581612814565b811461298057600080fd5b50565b6003811061299057600080fd5b50565b61299c81612853565b81146129a757600080fd5b5056fea2646970667358221220faed2c0d516d98bc3f3a5a2fa136fed44ba863b8f2b2d0f21c200859f78171e464736f6c63430006060033",
  "immutableReferences": {},
  "source": "pragma solidity =0.6.6;\r\npragma experimental ABIEncoderV2;\r\n// import \"@uniswap/v2-periphery/contracts/interfaces/IERC20.sol\";\r\n\r\nimport \"@studydefi/money-legos/uniswapV2/contracts/IUniswapV2Router02.sol\";\r\nimport \"@openZeppelin/contracts/presets/ERC20PresetMinterPauser.sol\";\r\n\r\n// import \"@openzeppelin/contracts/token/ERC20/SafeERC20.sol\";\r\n\r\n// import \"@openzeppelin/contracts/token/ERC20/utils/SafeERC20.sol\";\r\n\r\n// library SafeMath {\r\n//     /**\r\n//      * @dev Returns the addition of two unsigned integers, reverting on\r\n//      * overflow.\r\n//      *\r\n//      * Counterpart to Solidity's `+` operator.\r\n//      *\r\n//      * Requirements:\r\n//      * - Addition cannot overflow.\r\n//      */\r\n//     function add(uint256 a, uint256 b) internal pure returns (uint256) {\r\n//         uint256 c = a + b;\r\n//         require(c >= a, \"SafeMath: addition overflow\");\r\n\r\n//         return c;\r\n//     }\r\n\r\n//     /**\r\n//      * @dev Returns the subtraction of two unsigned integers, reverting on\r\n//      * overflow (when the result is negative).\r\n//      *\r\n//      * Counterpart to Solidity's `-` operator.\r\n//      *\r\n//      * Requirements:\r\n//      * - Subtraction cannot overflow.\r\n//      */\r\n//     function sub(uint256 a, uint256 b) internal pure returns (uint256) {\r\n//         return sub(a, b, \"SafeMath: subtraction overflow\");\r\n//     }\r\n\r\n//     /**\r\n//      * @dev Returns the subtraction of two unsigned integers, reverting with custom message on\r\n//      * overflow (when the result is negative).\r\n//      *\r\n//      * Counterpart to Solidity's `-` operator.\r\n//      *\r\n//      * Requirements:\r\n//      * - Subtraction cannot overflow.\r\n//      */\r\n//     function sub(\r\n//         uint256 a,\r\n//         uint256 b,\r\n//         string memory errorMessage\r\n//     ) internal pure returns (uint256) {\r\n//         require(b <= a, errorMessage);\r\n//         uint256 c = a - b;\r\n\r\n//         return c;\r\n//     }\r\n\r\n//     /**\r\n//      * @dev Returns the multiplication of two unsigned integers, reverting on\r\n//      * overflow.\r\n//      *\r\n//      * Counterpart to Solidity's `*` operator.\r\n//      *\r\n//      * Requirements:\r\n//      * - Multiplication cannot overflow.\r\n//      */\r\n//     function mul(uint256 a, uint256 b) internal pure returns (uint256) {\r\n//         // Gas optimization: this is cheaper than requiring 'a' not being zero, but the\r\n//         // benefit is lost if 'b' is also tested.\r\n//         // See: https://github.com/OpenZeppelin/openzeppelin-contracts/pull/522\r\n//         if (a == 0) {\r\n//             return 0;\r\n//         }\r\n\r\n//         uint256 c = a * b;\r\n//         require(c / a == b, \"SafeMath: multiplication overflow\");\r\n\r\n//         return c;\r\n//     }\r\n\r\n//     /**\r\n//      * @dev Returns the integer division of two unsigned integers. Reverts on\r\n//      * division by zero. The result is rounded towards zero.\r\n//      *\r\n//      * Counterpart to Solidity's `/` operator. Note: this function uses a\r\n//      * `revert` opcode (which leaves remaining gas untouched) while Solidity\r\n//      * uses an invalid opcode to revert (consuming all remaining gas).\r\n//      *\r\n//      * Requirements:\r\n//      * - The divisor cannot be zero.\r\n//      */\r\n//     function div(uint256 a, uint256 b) internal pure returns (uint256) {\r\n//         return div(a, b, \"SafeMath: division by zero\");\r\n//     }\r\n\r\n//     /**\r\n//      * @dev Returns the integer division of two unsigned integers. Reverts with custom message on\r\n//      * division by zero. The result is rounded towards zero.\r\n//      *\r\n//      * Counterpart to Solidity's `/` operator. Note: this function uses a\r\n//      * `revert` opcode (which leaves remaining gas untouched) while Solidity\r\n//      * uses an invalid opcode to revert (consuming all remaining gas).\r\n//      *\r\n//      * Requirements:\r\n//      * - The divisor cannot be zero.\r\n//      */\r\n//     function div(\r\n//         uint256 a,\r\n//         uint256 b,\r\n//         string memory errorMessage\r\n//     ) internal pure returns (uint256) {\r\n//         // Solidity only automatically asserts when dividing by 0\r\n//         require(b > 0, errorMessage);\r\n//         uint256 c = a / b;\r\n//         // assert(a == b * c + a % b); // There is no case in which this doesn't hold\r\n\r\n//         return c;\r\n//     }\r\n\r\n//     /**\r\n//      * @dev Returns the remainder of dividing two unsigned integers. (unsigned integer modulo),\r\n//      * Reverts when dividing by zero.\r\n//      *\r\n//      * Counterpart to Solidity's `%` operator. This function uses a `revert`\r\n//      * opcode (which leaves remaining gas untouched) while Solidity uses an\r\n//      * invalid opcode to revert (consuming all remaining gas).\r\n//      *\r\n//      * Requirements:\r\n//      * - The divisor cannot be zero.\r\n//      */\r\n//     function mod(uint256 a, uint256 b) internal pure returns (uint256) {\r\n//         return mod(a, b, \"SafeMath: modulo by zero\");\r\n//     }\r\n\r\n//     /**\r\n//      * @dev Returns the remainder of dividing two unsigned integers. (unsigned integer modulo),\r\n//      * Reverts with custom message when dividing by zero.\r\n//      *\r\n//      * Counterpart to Solidity's `%` operator. This function uses a `revert`\r\n//      * opcode (which leaves remaining gas untouched) while Solidity uses an\r\n//      * invalid opcode to revert (consuming all remaining gas).\r\n//      *\r\n//      * Requirements:\r\n//      * - The divisor cannot be zero.\r\n//      */\r\n//     function mod(\r\n//         uint256 a,\r\n//         uint256 b,\r\n//         string memory errorMessage\r\n//     ) internal pure returns (uint256) {\r\n//         require(b != 0, errorMessage);\r\n//         return a % b;\r\n//     }\r\n// }\r\n\r\n// library Address {\r\n//     /**\r\n//      * @dev Returns true if `account` is a contract.\r\n//      *\r\n//      * [IMPORTANT]\r\n//      * ====\r\n//      * It is unsafe to assume that an address for which this function returns\r\n//      * false is an externally-owned account (EOA) and not a contract.\r\n//      *\r\n//      * Among others, `isContract` will return false for the following\r\n//      * types of addresses:\r\n//      *\r\n//      *  - an externally-owned account\r\n//      *  - a contract in construction\r\n//      *  - an address where a contract will be created\r\n//      *  - an address where a contract lived, but was destroyed\r\n//      * ====\r\n//      */\r\n//     function isContract(address account) internal view returns (bool) {\r\n//         // According to EIP-1052, 0x0 is the value returned for not-yet created accounts\r\n//         // and 0xc5d2460186f7233c927e7db2dcc703c0e500b653ca82273b7bfad8045d85a470 is returned\r\n//         // for accounts without code, i.e. `keccak256('')`\r\n//         bytes32 codehash;\r\n//         bytes32 accountHash = 0xc5d2460186f7233c927e7db2dcc703c0e500b653ca82273b7bfad8045d85a470;\r\n//         // solhint-disable-next-line no-inline-assembly\r\n//         assembly {\r\n//             codehash := extcodehash(account)\r\n//         }\r\n//         return (codehash != accountHash && codehash != 0x0);\r\n//     }\r\n\r\n//     /**\r\n//      * @dev Replacement for Solidity's `transfer`: sends `amount` wei to\r\n//      * `recipient`, forwarding all available gas and reverting on errors.\r\n//      *\r\n//      * https://eips.ethereum.org/EIPS/eip-1884[EIP1884] increases the gas cost\r\n//      * of certain opcodes, possibly making contracts go over the 2300 gas limit\r\n//      * imposed by `transfer`, making them unable to receive funds via\r\n//      * `transfer`. {sendValue} removes this limitation.\r\n//      *\r\n//      * https://diligence.consensys.net/posts/2019/09/stop-using-soliditys-transfer-now/[Learn more].\r\n//      *\r\n//      * IMPORTANT: because control is transferred to `recipient`, care must be\r\n//      * taken to not create reentrancy vulnerabilities. Consider using\r\n//      * {ReentrancyGuard} or the\r\n//      * https://solidity.readthedocs.io/en/v0.5.11/security-considerations.html#use-the-checks-effects-interactions-pattern[checks-effects-interactions pattern].\r\n//      */\r\n//     function sendValue(address payable recipient, uint256 amount) internal {\r\n//         require(\r\n//             address(this).balance >= amount,\r\n//             \"Address: insufficient balance\"\r\n//         );\r\n\r\n//         // solhint-disable-next-line avoid-low-level-calls, avoid-call-value\r\n//         (bool success, ) = recipient.call{value: amount}(\"\");\r\n//         require(\r\n//             success,\r\n//             \"Address: unable to send value, recipient may have reverted\"\r\n//         );\r\n//     }\r\n// }\r\n\r\nlibrary SafeERC20 {\r\n    using SafeMath for uint256;\r\n    using Address for address;\r\n\r\n    function safeTransfer(\r\n        IERC20 token,\r\n        address to,\r\n        uint256 value\r\n    ) internal {\r\n        _callOptionalReturn(\r\n            token,\r\n            abi.encodeWithSelector(token.transfer.selector, to, value)\r\n        );\r\n    }\r\n\r\n    function safeTransferFrom(\r\n        IERC20 token,\r\n        address from,\r\n        address to,\r\n        uint256 value\r\n    ) internal {\r\n        _callOptionalReturn(\r\n            token,\r\n            abi.encodeWithSelector(token.transferFrom.selector, from, to, value)\r\n        );\r\n    }\r\n\r\n    function safeApprove(\r\n        IERC20 token,\r\n        address spender,\r\n        uint256 value\r\n    ) internal {\r\n        // safeApprove should only be called when setting an initial allowance,\r\n        // or when resetting it to zero. To increase and decrease it, use\r\n        // 'safeIncreaseAllowance' and 'safeDecreaseAllowance'\r\n        // solhint-disable-next-line max-line-length\r\n        require(\r\n            (value == 0) || (token.allowance(address(this), spender) == 0),\r\n            \"SafeERC20: approve from non-zero to non-zero allowance\"\r\n        );\r\n        _callOptionalReturn(\r\n            token,\r\n            abi.encodeWithSelector(token.approve.selector, spender, value)\r\n        );\r\n    }\r\n\r\n    function safeIncreaseAllowance(\r\n        IERC20 token,\r\n        address spender,\r\n        uint256 value\r\n    ) internal {\r\n        uint256 newAllowance = token.allowance(address(this), spender).add(\r\n            value\r\n        );\r\n        _callOptionalReturn(\r\n            token,\r\n            abi.encodeWithSelector(\r\n                token.approve.selector,\r\n                spender,\r\n                newAllowance\r\n            )\r\n        );\r\n    }\r\n\r\n    function safeDecreaseAllowance(\r\n        IERC20 token,\r\n        address spender,\r\n        uint256 value\r\n    ) internal {\r\n        uint256 newAllowance = token.allowance(address(this), spender).sub(\r\n            value,\r\n            \"SafeERC20: decreased allowance below zero\"\r\n        );\r\n        _callOptionalReturn(\r\n            token,\r\n            abi.encodeWithSelector(\r\n                token.approve.selector,\r\n                spender,\r\n                newAllowance\r\n            )\r\n        );\r\n    }\r\n\r\n    /**\r\n     * @dev Imitates a Solidity high-level call (i.e. a regular function call to a contract), relaxing the requirement\r\n     * on the return value: the return value is optional (but if data is returned, it must not be false).\r\n     * @param token The token targeted by the call.\r\n     * @param data The call data (encoded using abi.encode or one of its variants).\r\n     */\r\n    function _callOptionalReturn(IERC20 token, bytes memory data) private {\r\n        // We need to perform a low level call here, to bypass Solidity's return data size checking mechanism, since\r\n        // we're implementing it ourselves.\r\n\r\n        // A Solidity high level call has three parts:\r\n        //  1. The target address is checked to verify it contains contract code\r\n        //  2. The call itself is made, and success asserted\r\n        //  3. The return value is decoded, which in turn checks the size of the returned data.\r\n        // solhint-disable-next-line max-line-length\r\n        require(address(token).isContract(), \"SafeERC20: call to non-contract\");\r\n\r\n        // solhint-disable-next-line avoid-low-level-calls\r\n        (bool success, bytes memory returndata) = address(token).call(data);\r\n        require(success, \"SafeERC20: low-level call failed\");\r\n\r\n        if (returndata.length > 0) {\r\n            // Return data is optional\r\n            // solhint-disable-next-line max-line-length\r\n            require(\r\n                abi.decode(returndata, (bool)),\r\n                \"SafeERC20: ERC20 operation did not succeed\"\r\n            );\r\n        }\r\n    }\r\n}\r\n\r\ninterface IUniswapExchange {\r\n    // Address of ERC20 token sold on this exchange\r\n    function tokenAddress() external view returns (address token);\r\n\r\n    // Address of Uniswap Factory\r\n    function factoryAddress() external view returns (address factory);\r\n\r\n    // Provide Liquidity\r\n    function addLiquidity(\r\n        uint256 min_liquidity,\r\n        uint256 max_tokens,\r\n        uint256 deadline\r\n    ) external payable returns (uint256);\r\n\r\n    function removeLiquidity(\r\n        uint256 amount,\r\n        uint256 min_eth,\r\n        uint256 min_tokens,\r\n        uint256 deadline\r\n    ) external returns (uint256, uint256);\r\n\r\n    // Get Prices\r\n    function getEthToTokenInputPrice(uint256 eth_sold)\r\n        external\r\n        view\r\n        returns (uint256 tokens_bought);\r\n\r\n    function getEthToTokenOutputPrice(uint256 tokens_bought)\r\n        external\r\n        view\r\n        returns (uint256 eth_sold);\r\n\r\n    function getTokenToEthInputPrice(uint256 tokens_sold)\r\n        external\r\n        view\r\n        returns (uint256 eth_bought);\r\n\r\n    function getTokenToEthOutputPrice(uint256 eth_bought)\r\n        external\r\n        view\r\n        returns (uint256 tokens_sold);\r\n\r\n    // Trade ETH to ERC20\r\n    function ethToTokenSwapInput(uint256 min_tokens, uint256 deadline)\r\n        external\r\n        payable\r\n        returns (uint256 tokens_bought);\r\n\r\n    function ethToTokenTransferInput(\r\n        uint256 min_tokens,\r\n        uint256 deadline,\r\n        address recipient\r\n    ) external payable returns (uint256 tokens_bought);\r\n\r\n    function ethToTokenSwapOutput(uint256 tokens_bought, uint256 deadline)\r\n        external\r\n        payable\r\n        returns (uint256 eth_sold);\r\n\r\n    function ethToTokenTransferOutput(\r\n        uint256 tokens_bought,\r\n        uint256 deadline,\r\n        address recipient\r\n    ) external payable returns (uint256 eth_sold);\r\n\r\n    // Trade ERC20 to ETH\r\n    function tokenToEthSwapInput(\r\n        uint256 tokens_sold,\r\n        uint256 min_eth,\r\n        uint256 deadline\r\n    ) external returns (uint256 eth_bought);\r\n\r\n    function tokenToEthTransferInput(\r\n        uint256 tokens_sold,\r\n        uint256 min_eth,\r\n        uint256 deadline,\r\n        address recipient\r\n    ) external returns (uint256 eth_bought);\r\n\r\n    function tokenToEthSwapOutput(\r\n        uint256 eth_bought,\r\n        uint256 max_tokens,\r\n        uint256 deadline\r\n    ) external returns (uint256 tokens_sold);\r\n\r\n    function tokenToEthTransferOutput(\r\n        uint256 eth_bought,\r\n        uint256 max_tokens,\r\n        uint256 deadline,\r\n        address recipient\r\n    ) external returns (uint256 tokens_sold);\r\n\r\n    // Trade ERC20 to ERC20\r\n    function tokenToTokenSwapInput(\r\n        uint256 tokens_sold,\r\n        uint256 min_tokens_bought,\r\n        uint256 min_eth_bought,\r\n        uint256 deadline,\r\n        address token_addr\r\n    ) external returns (uint256 tokens_bought);\r\n\r\n    function tokenToTokenTransferInput(\r\n        uint256 tokens_sold,\r\n        uint256 min_tokens_bought,\r\n        uint256 min_eth_bought,\r\n        uint256 deadline,\r\n        address recipient,\r\n        address token_addr\r\n    ) external returns (uint256 tokens_bought);\r\n\r\n    function tokenToTokenSwapOutput(\r\n        uint256 tokens_bought,\r\n        uint256 max_tokens_sold,\r\n        uint256 max_eth_sold,\r\n        uint256 deadline,\r\n        address token_addr\r\n    ) external returns (uint256 tokens_sold);\r\n\r\n    function tokenToTokenTransferOutput(\r\n        uint256 tokens_bought,\r\n        uint256 max_tokens_sold,\r\n        uint256 max_eth_sold,\r\n        uint256 deadline,\r\n        address recipient,\r\n        address token_addr\r\n    ) external returns (uint256 tokens_sold);\r\n\r\n    // Trade ERC20 to Custom Pool\r\n    function tokenToExchangeSwapInput(\r\n        uint256 tokens_sold,\r\n        uint256 min_tokens_bought,\r\n        uint256 min_eth_bought,\r\n        uint256 deadline,\r\n        address exchange_addr\r\n    ) external returns (uint256 tokens_bought);\r\n\r\n    function tokenToExchangeTransferInput(\r\n        uint256 tokens_sold,\r\n        uint256 min_tokens_bought,\r\n        uint256 min_eth_bought,\r\n        uint256 deadline,\r\n        address recipient,\r\n        address exchange_addr\r\n    ) external returns (uint256 tokens_bought);\r\n\r\n    function tokenToExchangeSwapOutput(\r\n        uint256 tokens_bought,\r\n        uint256 max_tokens_sold,\r\n        uint256 max_eth_sold,\r\n        uint256 deadline,\r\n        address exchange_addr\r\n    ) external returns (uint256 tokens_sold);\r\n\r\n    function tokenToExchangeTransferOutput(\r\n        uint256 tokens_bought,\r\n        uint256 max_tokens_sold,\r\n        uint256 max_eth_sold,\r\n        uint256 deadline,\r\n        address recipient,\r\n        address exchange_addr\r\n    ) external returns (uint256 tokens_sold);\r\n\r\n    // ERC20 comaptibility for liquidity tokens\r\n    function name() external view returns (bytes32);\r\n\r\n    function symbol() external view returns (bytes32);\r\n\r\n    function decimals() external view returns (uint256);\r\n\r\n    function transfer(address _to, uint256 _value) external returns (bool);\r\n\r\n    function transferFrom(\r\n        address _from,\r\n        address _to,\r\n        uint256 value\r\n    ) external returns (bool);\r\n\r\n    function approve(address _spender, uint256 _value) external returns (bool);\r\n\r\n    function allowance(address _owner, address _spender)\r\n        external\r\n        view\r\n        returns (uint256);\r\n\r\n    function balanceOf(address _owner) external view returns (uint256);\r\n\r\n    function totalSupply() external view returns (uint256);\r\n\r\n    // Never use\r\n    function setup(address token_addr) external;\r\n}\r\n\r\ninterface IUniswapFactory {\r\n    // Create Exchange\r\n    function createExchange(address token) external returns (address exchange);\r\n\r\n    // Get Exchange and Token Info\r\n    function getExchange(address token)\r\n        external\r\n        view\r\n        returns (address exchange);\r\n\r\n    function getToken(address exchange) external view returns (address token);\r\n\r\n    function getTokenWithId(uint256 tokenId)\r\n        external\r\n        view\r\n        returns (address token);\r\n\r\n    // Never use\r\n    function initializeFactory(address template) external;\r\n}\r\n\r\ninterface ILendingPool {\r\n    function addressesProvider() external view returns (address);\r\n\r\n    function deposit(\r\n        address _reserve,\r\n        uint256 _amount,\r\n        uint16 _referralCode\r\n    ) external payable;\r\n\r\n    function redeemUnderlying(\r\n        address _reserve,\r\n        address _user,\r\n        uint256 _amount\r\n    ) external;\r\n\r\n    function borrow(\r\n        address _reserve,\r\n        uint256 _amount,\r\n        uint256 _interestRateMode,\r\n        uint16 _referralCode\r\n    ) external;\r\n\r\n    function repay(\r\n        address _reserve,\r\n        uint256 _amount,\r\n        address _onBehalfOf\r\n    ) external payable;\r\n\r\n    function swapBorrowRateMode(address _reserve) external;\r\n\r\n    function rebalanceFixedBorrowRate(address _reserve, address _user) external;\r\n\r\n    function setUserUseReserveAsCollateral(\r\n        address _reserve,\r\n        bool _useAsCollateral\r\n    ) external;\r\n\r\n    function liquidationCall(\r\n        address _collateral,\r\n        address _reserve,\r\n        address _user,\r\n        uint256 _purchaseAmount,\r\n        bool _receiveAToken\r\n    ) external payable;\r\n\r\n    function flashLoan(\r\n        address _receiver,\r\n        address _reserve,\r\n        uint256 _amount,\r\n        bytes calldata _params\r\n    ) external;\r\n\r\n    function getReserveConfigurationData(address _reserve)\r\n        external\r\n        view\r\n        returns (\r\n            uint256 ltv,\r\n            uint256 liquidationThreshold,\r\n            uint256 liquidationDiscount,\r\n            address interestRateStrategyAddress,\r\n            bool usageAsCollateralEnabled,\r\n            bool borrowingEnabled,\r\n            bool fixedBorrowRateEnabled,\r\n            bool isActive\r\n        );\r\n\r\n    function getReserveData(address _reserve)\r\n        external\r\n        view\r\n        returns (\r\n            uint256 totalLiquidity,\r\n            uint256 availableLiquidity,\r\n            uint256 totalBorrowsFixed,\r\n            uint256 totalBorrowsVariable,\r\n            uint256 liquidityRate,\r\n            uint256 variableBorrowRate,\r\n            uint256 fixedBorrowRate,\r\n            uint256 averageFixedBorrowRate,\r\n            uint256 utilizationRate,\r\n            uint256 liquidityIndex,\r\n            uint256 variableBorrowIndex,\r\n            address aTokenAddress,\r\n            uint40 lastUpdateTimestamp\r\n        );\r\n\r\n    function getUserAccountData(address _user)\r\n        external\r\n        view\r\n        returns (\r\n            uint256 totalLiquidityETH,\r\n            uint256 totalCollateralETH,\r\n            uint256 totalBorrowsETH,\r\n            uint256 availableBorrowsETH,\r\n            uint256 currentLiquidationThreshold,\r\n            uint256 ltv,\r\n            uint256 healthFactor\r\n        );\r\n\r\n    function getUserReserveData(address _reserve, address _user)\r\n        external\r\n        view\r\n        returns (\r\n            uint256 currentATokenBalance,\r\n            uint256 currentUnderlyingBalance,\r\n            uint256 currentBorrowBalance,\r\n            uint256 principalBorrowBalance,\r\n            uint256 borrowRateMode,\r\n            uint256 borrowRate,\r\n            uint256 liquidityRate,\r\n            uint256 originationFee,\r\n            uint256 variableBorrowIndex,\r\n            uint256 lastUpdateTimestamp,\r\n            bool usageAsCollateralEnabled\r\n        );\r\n\r\n    function getReserves() external view;\r\n}\r\n\r\ninterface ILendingPoolAddressesProvider {\r\n    function getLendingPool() external view returns (address);\r\n\r\n    function setLendingPoolImpl(address _pool) external;\r\n\r\n    function getLendingPoolCore() external view returns (address payable);\r\n\r\n    function setLendingPoolCoreImpl(address _lendingPoolCore) external;\r\n\r\n    function getLendingPoolConfigurator() external view returns (address);\r\n\r\n    function setLendingPoolConfiguratorImpl(address _configurator) external;\r\n\r\n    function getLendingPoolDataProvider() external view returns (address);\r\n\r\n    function setLendingPoolDataProviderImpl(address _provider) external;\r\n\r\n    function getLendingPoolParametersProvider() external view returns (address);\r\n\r\n    function setLendingPoolParametersProvider(address _parametersProvider)\r\n        external;\r\n\r\n    function getFeeProvider() external view returns (address);\r\n\r\n    function setFeeProviderImpl(address _feeProvider) external;\r\n\r\n    function getLendingPoolLiquidationManager() external view returns (address);\r\n\r\n    function setLendingPoolLiquidationManager(address _manager) external;\r\n\r\n    function getLendingPoolManager() external view returns (address);\r\n\r\n    function setLendingPoolManager(address _lendingPoolManager) external;\r\n\r\n    function getPriceOracle() external view returns (address);\r\n\r\n    function setPriceOracle(address _priceOracle) external;\r\n\r\n    function getLendingRateOracle() external view returns (address);\r\n\r\n    function setLendingRateOracle(address _lendingRateOracle) external;\r\n\r\n    function getRewardManager() external view returns (address);\r\n\r\n    function setRewardManager(address _manager) external;\r\n\r\n    function getLpRewardVault() external view returns (address);\r\n\r\n    function setLpRewardVault(address _address) external;\r\n\r\n    function getGovRewardVault() external view returns (address);\r\n\r\n    function setGovRewardVault(address _address) external;\r\n\r\n    function getSafetyRewardVault() external view returns (address);\r\n\r\n    function setSafetyRewardVault(address _address) external;\r\n\r\n    function getStakingToken() external view returns (address);\r\n\r\n    function setStakingToken(address _address) external;\r\n}\r\n\r\ninterface IFactoryContract {\r\n    function getAmountsOut(uint256 amountIn, address[] calldata path)\r\n        external\r\n        view\r\n        returns (uint256[] memory amounts);\r\n}\r\n\r\ninterface IFlashLoanReceiver {\r\n    function executeOperation(\r\n        address _reserve,\r\n        uint256 _amount,\r\n        uint256 _fee,\r\n        bytes calldata _params\r\n    ) external;\r\n}\r\n\r\ncontract FlashLoanReceiverBase is IFlashLoanReceiver {\r\n    using SafeERC20 for IERC20;\r\n\r\n    address public constant ETH_ADDRESS =\r\n        0xEeeeeEeeeEeEeeEeEeEeeEEEeeeeEeeeeeeeEEeE;\r\n\r\n    ILendingPoolAddressesProvider public addressesProvider =\r\n        ILendingPoolAddressesProvider(\r\n            0x24a42fD28C976A61Df5D00D0599C34c4f90748c8\r\n        );\r\n\r\n    fallback() external payable {}\r\n\r\n    receive() external payable {}\r\n\r\n    function executeOperation(\r\n        address _reserve,\r\n        uint256 _amount,\r\n        uint256 _fee,\r\n        bytes calldata _params\r\n    ) external virtual override {}\r\n\r\n    function transferFundsBackToPoolInternal(address _reserve, uint256 _amount)\r\n        internal\r\n    {\r\n        address payable core = addressesProvider.getLendingPoolCore();\r\n        transferInternal(core, _reserve, _amount);\r\n    }\r\n\r\n    function transferInternal(\r\n        address payable _destination,\r\n        address _reserve,\r\n        uint256 _amount\r\n    ) internal {\r\n        if (_reserve == ETH_ADDRESS) {\r\n            //solium-disable-next-line\r\n            (bool success, ) = _destination.call{value: _amount, gas: 50000}(\r\n                \"\"\r\n            );\r\n            if (success) return;\r\n        }\r\n        IERC20(_reserve).safeTransfer(_destination, _amount);\r\n    }\r\n\r\n    function getBalanceInternal(address _target, address _reserve)\r\n        internal\r\n        view\r\n        returns (uint256)\r\n    {\r\n        if (_reserve == ETH_ADDRESS) {\r\n            return _target.balance;\r\n        }\r\n        return IERC20(_reserve).balanceOf(_target);\r\n    }\r\n}\r\n\r\ncontract FlashloanMoneyLego is FlashLoanReceiverBase {\r\n    address public constant AaveLendingPoolAddressProviderAddress =\r\n        0x506B0B2CF20FAA8f38a4E2B524EE43e1f4458Cc5;\r\n\r\n    mapping(address => uint256) public balances;\r\n\r\n    mapping(address => uint256) public coiner;\r\n    enum version {\r\n        V1,\r\n        V2,\r\n        V3\r\n    }\r\n    struct blocker {\r\n        address tokenIn;\r\n        address tokenOut;\r\n        uint256 amountIn;\r\n        address factory;\r\n        version ver;\r\n    }\r\n    struct actioner {\r\n        address who;\r\n        uint256 amount;\r\n        blocker[] data;\r\n    }\r\n    event Logger(blocker name);\r\n    event LogInput(actioner action);\r\n    event LogAmount(uint256 amount);\r\n\r\n    constructor() public {\r\n        // Override the addressesProvider in the base class to use Kovan for testing\r\n        FlashLoanReceiverBase.addressesProvider = ILendingPoolAddressesProvider(\r\n            AaveLendingPoolAddressProviderAddress\r\n        );\r\n    }\r\n\r\n    function executeOperation(\r\n        address _reserve,\r\n        uint256 _amount,\r\n        uint256 _fee,\r\n        bytes calldata _params\r\n    ) external override {\r\n        require(\r\n            _amount <= getBalanceInternal(address(this), _reserve),\r\n            \"Invalid balance, was the flashLoan successful?\"\r\n        );\r\n\r\n        uint256 fee = _fee;\r\n        uint256 deadline = block.timestamp + 3000;\r\n        address reverse = _reserve;\r\n\r\n        blocker[] memory blocks = abi.decode(_params, (blocker[]));\r\n        balances[reverse] = _amount;\r\n\r\n        for (uint256 i = 0; i < blocks.length; i++) {\r\n            if (blocks[i].ver == version.V1) {\r\n                IERC20(blocks[i].tokenIn).approve(\r\n                    address(\r\n                        IUniswapExchange(\r\n                            IUniswapFactory(blocks[i].factory).getExchange(\r\n                                blocks[i].tokenIn\r\n                            )\r\n                        )\r\n                    ),\r\n                    balances[blocks[i].tokenIn]\r\n                );\r\n\r\n                if (blocks[i].tokenOut != reverse) {\r\n                    balances[blocks[i].tokenOut] = IUniswapExchange(\r\n                        IUniswapFactory(blocks[i].factory).getExchange(\r\n                            blocks[i].tokenIn\r\n                        )\r\n                    ).tokenToTokenSwapInput(\r\n                            balances[blocks[i].tokenIn],\r\n                            1,\r\n                            1,\r\n                            deadline,\r\n                            blocks[i].tokenOut\r\n                        );\r\n                } else {\r\n                    balances[reverse] = IUniswapExchange(\r\n                        IUniswapFactory(blocks[i].factory).getExchange(\r\n                            blocks[i].tokenIn\r\n                        )\r\n                    ).tokenToTokenSwapInput(\r\n                            balances[blocks[i].tokenIn],\r\n                            1,\r\n                            1,\r\n                            deadline,\r\n                            blocks[i].tokenOut\r\n                        );\r\n                }\r\n            }\r\n\r\n            if (blocks[i].ver == version.V2) {\r\n                IERC20(blocks[i].tokenIn).approve(\r\n                    address(blocks[i].factory),\r\n                    balances[blocks[i].tokenIn]\r\n                );\r\n\r\n                address[] memory path = new address[](2);\r\n                path[0] = blocks[i].tokenIn;\r\n                path[1] = blocks[i].tokenOut;\r\n                uint256[] memory amounts = IUniswapV2Router02(blocks[i].factory)\r\n                    .swapExactTokensForTokens(\r\n                        balances[blocks[i].tokenIn],\r\n                        0,\r\n                        path,\r\n                        address(this),\r\n                        block.timestamp + 1999\r\n                    );\r\n                balances[blocks[i].tokenOut] = amounts[1];\r\n                emit LogAmount(amounts[0]);\r\n                emit LogAmount(amounts[1]);\r\n            }\r\n        }\r\n\r\n        uint256 amount = _amount;\r\n\r\n        uint256 totalDebt = amount + fee;\r\n\r\n        require(\r\n            IERC20(reverse).balanceOf(address(this)) > totalDebt,\r\n            \"There is no profit! Reverting!\"\r\n        );\r\n\r\n        transferFundsBackToPoolInternal(reverse, amount + fee);\r\n    }\r\n\r\n    // Entry point for flashloan\r\n    // address assetToFlashLoan,\r\n    //     uint256 amountToLoan,\r\n    function initateFlashLoan(actioner memory action) public {\r\n        bytes memory data = abi.encode(action.data);\r\n\r\n        // Get Aave lending pool\r\n        ILendingPool lendingPool = ILendingPool(\r\n            addressesProvider.getLendingPool()\r\n        );\r\n\r\n        emit LogInput(action);\r\n\r\n        // Ask for a flashloan\r\n        lendingPool.flashLoan(address(this), action.who, action.amount, data);\r\n\r\n        // If there is still a balance of the loan asset then this is profit to be returned to sender!\r\n        uint256 profit = IERC20(action.who).balanceOf(address(this));\r\n        require(\r\n            IERC20(action.who).transfer(msg.sender, profit),\r\n            \"Could not transfer back the profit\"\r\n        );\r\n    }\r\n\r\n    function getAmountOutMin(\r\n        address factory,\r\n        uint256 amountIn,\r\n        address[] memory path\r\n    ) public view returns (uint256) {\r\n        uint256[] memory amountOutMins = IFactoryContract(address(factory))\r\n            .getAmountsOut(amountIn, path);\r\n        return amountOutMins[path.length - 1];\r\n    }\r\n\r\n    function approve(\r\n        address tokenIn,\r\n        address spender,\r\n        uint256 amount\r\n    ) public {\r\n        IERC20(tokenIn).approve(spender, amount);\r\n    }\r\n}\r\n",
  "sourcePath": "D:\\Flashloan\\Flashloans\\contracts\\FlashloanMoneyLego.sol",
  "compiler": {
    "name": "solc",
    "version": "0.6.6+commit.6c089d02.Emscripten.clang"
  },
  "schemaVersion": "3.4.3",
  "updatedAt": "2021-12-10T19:14:42.321Z",
  "networkType": "ethereum",
  "devdoc": {
    "methods": {}
  },
  "userdoc": {
    "methods": {}
  }
}