{
  "contractName": "FlashloanMoneyLego",
  "abi": [
    {
      "inputs": [],
      "payable": false,
      "stateMutability": "nonpayable",
      "type": "constructor"
    },
    {
      "anonymous": false,
      "inputs": [
        {
          "components": [
            {
              "internalType": "string",
              "name": "name",
              "type": "string"
            },
            {
              "internalType": "address",
              "name": "coin_address",
              "type": "address"
            },
            {
              "internalType": "uint256",
              "name": "amount",
              "type": "uint256"
            },
            {
              "internalType": "address",
              "name": "dex_address",
              "type": "address"
            }
          ],
          "indexed": false,
          "internalType": "struct FlashloanMoneyLego.blocker[]",
          "name": "name",
          "type": "tuple[]"
        }
      ],
      "name": "logger",
      "type": "event"
    },
    {
      "payable": true,
      "stateMutability": "payable",
      "type": "fallback"
    },
    {
      "constant": true,
      "inputs": [],
      "name": "AaveLendingPoolAddressProviderAddress",
      "outputs": [
        {
          "internalType": "address",
          "name": "",
          "type": "address"
        }
      ],
      "payable": false,
      "stateMutability": "view",
      "type": "function"
    },
    {
      "constant": true,
      "inputs": [],
      "name": "BAT_ADDRESS",
      "outputs": [
        {
          "internalType": "address",
          "name": "",
          "type": "address"
        }
      ],
      "payable": false,
      "stateMutability": "view",
      "type": "function"
    },
    {
      "constant": true,
      "inputs": [],
      "name": "UNISWAP_FACTORY_A",
      "outputs": [
        {
          "internalType": "address",
          "name": "",
          "type": "address"
        }
      ],
      "payable": false,
      "stateMutability": "view",
      "type": "function"
    },
    {
      "constant": true,
      "inputs": [],
      "name": "UNISWAP_FACTORY_B",
      "outputs": [
        {
          "internalType": "address",
          "name": "",
          "type": "address"
        }
      ],
      "payable": false,
      "stateMutability": "view",
      "type": "function"
    },
    {
      "constant": true,
      "inputs": [],
      "name": "addressesProvider",
      "outputs": [
        {
          "internalType": "contract ILendingPoolAddressesProvider",
          "name": "",
          "type": "address"
        }
      ],
      "payable": false,
      "stateMutability": "view",
      "type": "function"
    },
    {
      "constant": true,
      "inputs": [],
      "name": "exchangeAforBAT",
      "outputs": [
        {
          "internalType": "contract IUniswapExchange",
          "name": "",
          "type": "address"
        }
      ],
      "payable": false,
      "stateMutability": "view",
      "type": "function"
    },
    {
      "constant": true,
      "inputs": [],
      "name": "exchangeAforLoanAsset",
      "outputs": [
        {
          "internalType": "contract IUniswapExchange",
          "name": "",
          "type": "address"
        }
      ],
      "payable": false,
      "stateMutability": "view",
      "type": "function"
    },
    {
      "constant": true,
      "inputs": [],
      "name": "exchangeBforBAT",
      "outputs": [
        {
          "internalType": "contract IUniswapExchange",
          "name": "",
          "type": "address"
        }
      ],
      "payable": false,
      "stateMutability": "view",
      "type": "function"
    },
    {
      "constant": true,
      "inputs": [],
      "name": "exchangeBforLoanAsset",
      "outputs": [
        {
          "internalType": "contract IUniswapExchange",
          "name": "",
          "type": "address"
        }
      ],
      "payable": false,
      "stateMutability": "view",
      "type": "function"
    },
    {
      "constant": true,
      "inputs": [],
      "name": "uniswapFactoryA",
      "outputs": [
        {
          "internalType": "contract IUniswapFactory",
          "name": "",
          "type": "address"
        }
      ],
      "payable": false,
      "stateMutability": "view",
      "type": "function"
    },
    {
      "constant": true,
      "inputs": [],
      "name": "uniswapFactoryB",
      "outputs": [
        {
          "internalType": "contract IUniswapFactory",
          "name": "",
          "type": "address"
        }
      ],
      "payable": false,
      "stateMutability": "view",
      "type": "function"
    },
    {
      "constant": false,
      "inputs": [
        {
          "internalType": "address",
          "name": "_reserve",
          "type": "address"
        },
        {
          "internalType": "uint256",
          "name": "_amount",
          "type": "uint256"
        },
        {
          "internalType": "uint256",
          "name": "_fee",
          "type": "uint256"
        },
        {
          "internalType": "bytes",
          "name": "_params",
          "type": "bytes"
        }
      ],
      "name": "executeOperation",
      "outputs": [],
      "payable": false,
      "stateMutability": "nonpayable",
      "type": "function"
    },
    {
      "constant": false,
      "inputs": [
        {
          "components": [
            {
              "internalType": "address",
              "name": "who",
              "type": "address"
            },
            {
              "internalType": "uint256",
              "name": "amount",
              "type": "uint256"
            },
            {
              "components": [
                {
                  "internalType": "string",
                  "name": "name",
                  "type": "string"
                },
                {
                  "internalType": "address",
                  "name": "coin_address",
                  "type": "address"
                },
                {
                  "internalType": "uint256",
                  "name": "amount",
                  "type": "uint256"
                },
                {
                  "internalType": "address",
                  "name": "dex_address",
                  "type": "address"
                }
              ],
              "internalType": "struct FlashloanMoneyLego.blocker[]",
              "name": "data",
              "type": "tuple[]"
            }
          ],
          "internalType": "struct FlashloanMoneyLego.actioner",
          "name": "action",
          "type": "tuple"
        }
      ],
      "name": "initateFlashLoan",
      "outputs": [],
      "payable": false,
      "stateMutability": "nonpayable",
      "type": "function"
    }
  ],
  "bytecode": "0x60806040527324a42fd28c976a61df5d00d0599c34c4f90748c86000806101000a81548173ffffffffffffffffffffffffffffffffffffffff021916908373ffffffffffffffffffffffffffffffffffffffff1602179055503480156200006557600080fd5b5073506b0b2cf20faa8f38a4e2b524ee43e1f4458cc56000806101000a81548173ffffffffffffffffffffffffffffffffffffffff021916908373ffffffffffffffffffffffffffffffffffffffff16021790555073ecc6c0542710a0ef07966d7d1b10fa38bbb86523600160006101000a81548173ffffffffffffffffffffffffffffffffffffffff021916908373ffffffffffffffffffffffffffffffffffffffff1602179055507354ac34e5ce84c501165674782582adce2fddc8f4600260006101000a81548173ffffffffffffffffffffffffffffffffffffffff021916908373ffffffffffffffffffffffffffffffffffffffff1602179055506000600160009054906101000a900473ffffffffffffffffffffffffffffffffffffffff1673ffffffffffffffffffffffffffffffffffffffff166306f2bf62732d12186fbb9f9a8c28b3ffdd4c42920f8539d7386040518263ffffffff1660e01b8152600401620001d79190620003d4565b60206040518083038186803b158015620001f057600080fd5b505afa15801562000205573d6000803e3d6000fd5b505050506040513d601f19601f820116820180604052506200022b919081019062000397565b90506000600260009054906101000a900473ffffffffffffffffffffffffffffffffffffffff1673ffffffffffffffffffffffffffffffffffffffff166306f2bf62732d12186fbb9f9a8c28b3ffdd4c42920f8539d7386040518263ffffffff1660e01b8152600401620002a09190620003d4565b60206040518083038186803b158015620002b957600080fd5b505afa158015620002ce573d6000803e3d6000fd5b505050506040513d601f19601f82011682018060405250620002f4919081019062000397565b905081600560006101000a81548173ffffffffffffffffffffffffffffffffffffffff021916908373ffffffffffffffffffffffffffffffffffffffff16021790555080600660006101000a81548173ffffffffffffffffffffffffffffffffffffffff021916908373ffffffffffffffffffffffffffffffffffffffff16021790555050506200043f565b600081519050620003918162000425565b92915050565b600060208284031215620003aa57600080fd5b6000620003ba8482850162000380565b91505092915050565b620003ce81620003f1565b82525050565b6000602082019050620003eb6000830184620003c3565b92915050565b6000620003fe8262000405565b9050919050565b600073ffffffffffffffffffffffffffffffffffffffff82169050919050565b6200043081620003f1565b81146200043c57600080fd5b50565b611f51806200044f6000396000f3fe6080604052600436106100c25760003560e01c80636a09006e1161007f578063932c79c711610059578063932c79c714610245578063c72c4d1014610270578063cfc0ff1b1461029b578063ee872558146102c6576100c2565b80636a09006e146101c457806373e58fb4146101ef578063837015991461021a576100c2565b806312ad8d1d146100c457806319536b13146100ef578063273ba9251461011a5780633f6dc33b14610143578063470f42f51461016e578063620028de14610199575b005b3480156100d057600080fd5b506100d96102ef565b6040516100e69190611ad2565b60405180910390f35b3480156100fb57600080fd5b50610104610315565b6040516101119190611aed565b60405180910390f35b34801561012657600080fd5b50610141600480360361013c91908101906114ba565b61033b565b005b34801561014f57600080fd5b506101586105e8565b604051610165919061199f565b60405180910390f35b34801561017a57600080fd5b50610183610600565b604051610190919061199f565b60405180910390f35b3480156101a557600080fd5b506101ae610618565b6040516101bb9190611ad2565b60405180910390f35b3480156101d057600080fd5b506101d961063e565b6040516101e69190611aed565b60405180910390f35b3480156101fb57600080fd5b50610204610664565b6040516102119190611ad2565b60405180910390f35b34801561022657600080fd5b5061022f61068a565b60405161023c919061199f565b60405180910390f35b34801561025157600080fd5b5061025a6106a2565b6040516102679190611ad2565b60405180910390f35b34801561027c57600080fd5b506102856106c8565b6040516102929190611ab7565b60405180910390f35b3480156102a757600080fd5b506102b06106ed565b6040516102bd919061199f565b60405180910390f35b3480156102d257600080fd5b506102ed60048036036102e891908101906113d0565b610705565b005b600360009054906101000a900473ffffffffffffffffffffffffffffffffffffffff1681565b600260009054906101000a900473ffffffffffffffffffffffffffffffffffffffff1681565b606081604001516040516020016103529190611a73565b604051602081830303815290604052905060008060009054906101000a900473ffffffffffffffffffffffffffffffffffffffff1673ffffffffffffffffffffffffffffffffffffffff16630261bf8b6040518163ffffffff1660e01b815260040160206040518083038186803b1580156103cc57600080fd5b505afa1580156103e0573d6000803e3d6000fd5b505050506040513d601f19601f82011682018060405250610404919081019061137e565b90506000836000015190508173ffffffffffffffffffffffffffffffffffffffff16635cffe9de3086600001518760200151876040518563ffffffff1660e01b815260040161045694939291906119d5565b600060405180830381600087803b15801561047057600080fd5b505af1158015610484573d6000803e3d6000fd5b5050505060008173ffffffffffffffffffffffffffffffffffffffff166370a08231306040518263ffffffff1660e01b81526004016104c391906119ba565b60206040518083038186803b1580156104db57600080fd5b505afa1580156104ef573d6000803e3d6000fd5b505050506040513d601f19601f8201168201806040525061051391908101906114fb565b90508173ffffffffffffffffffffffffffffffffffffffff1663a9059cbb33836040518363ffffffff1660e01b8152600401610550929190611a21565b602060405180830381600087803b15801561056a57600080fd5b505af115801561057e573d6000803e3d6000fd5b505050506040513d601f19601f820116820180604052506105a29190810190611491565b6105e1576040517f08c379a00000000000000000000000000000000000000000000000000000000081526004016105d890611b88565b60405180910390fd5b5050505050565b73506b0b2cf20faa8f38a4e2b524ee43e1f4458cc581565b73ecc6c0542710a0ef07966d7d1b10fa38bbb8652381565b600460009054906101000a900473ffffffffffffffffffffffffffffffffffffffff1681565b600160009054906101000a900473ffffffffffffffffffffffffffffffffffffffff1681565b600560009054906101000a900473ffffffffffffffffffffffffffffffffffffffff1681565b7354ac34e5ce84c501165674782582adce2fddc8f481565b600660009054906101000a900473ffffffffffffffffffffffffffffffffffffffff1681565b6000809054906101000a900473ffffffffffffffffffffffffffffffffffffffff1681565b732d12186fbb9f9a8c28b3ffdd4c42920f8539d73881565b61070f3086610d9d565b841115610751576040517f08c379a000000000000000000000000000000000000000000000000000000000815260040161074890611b48565b60405180910390fd5b6000839050606083836107679190810190611450565b905060008790507ffafd73f3ffcb83086eb9ec660ef67262b045250bca827d46af4763bac281b78f8260405161079d9190611a95565b60405180910390a16000610bb8420190506000600160009054906101000a900473ffffffffffffffffffffffffffffffffffffffff1673ffffffffffffffffffffffffffffffffffffffff166306f2bf62846040518263ffffffff1660e01b815260040161080b919061199f565b60206040518083038186803b15801561082357600080fd5b505afa158015610837573d6000803e3d6000fd5b505050506040513d601f19601f8201168201806040525061085b919081019061137e565b90506000600260009054906101000a900473ffffffffffffffffffffffffffffffffffffffff1673ffffffffffffffffffffffffffffffffffffffff166306f2bf62856040518263ffffffff1660e01b81526004016108ba919061199f565b60206040518083038186803b1580156108d257600080fd5b505afa1580156108e6573d6000803e3d6000fd5b505050506040513d601f19601f8201168201806040525061090a919081019061137e565b905081600360006101000a81548173ffffffffffffffffffffffffffffffffffffffff021916908373ffffffffffffffffffffffffffffffffffffffff16021790555080600460006101000a81548173ffffffffffffffffffffffffffffffffffffffff021916908373ffffffffffffffffffffffffffffffffffffffff16021790555060008490506000732d12186fbb9f9a8c28b3ffdd4c42920f8539d73890508173ffffffffffffffffffffffffffffffffffffffff1663095ea7b3600460009054906101000a900473ffffffffffffffffffffffffffffffffffffffff168e6040518363ffffffff1660e01b8152600401610a09929190611a4a565b602060405180830381600087803b158015610a2357600080fd5b505af1158015610a37573d6000803e3d6000fd5b505050506040513d601f19601f82011682018060405250610a5b9190810190611491565b610a9a576040517f08c379a0000000000000000000000000000000000000000000000000000000008152600401610a9190611ba8565b60405180910390fd5b6000600460009054906101000a900473ffffffffffffffffffffffffffffffffffffffff1673ffffffffffffffffffffffffffffffffffffffff1663ddf7e1a78e6001808a732d12186fbb9f9a8c28b3ffdd4c42920f8539d7386040518663ffffffff1660e01b8152600401610b14959493929190611bc8565b602060405180830381600087803b158015610b2e57600080fd5b505af1158015610b42573d6000803e3d6000fd5b505050506040513d601f19601f82011682018060405250610b6691908101906114fb565b90508173ffffffffffffffffffffffffffffffffffffffff1663095ea7b3600560009054906101000a900473ffffffffffffffffffffffffffffffffffffffff16836040518363ffffffff1660e01b8152600401610bc5929190611a4a565b602060405180830381600087803b158015610bdf57600080fd5b505af1158015610bf3573d6000803e3d6000fd5b505050506040513d601f19601f82011682018060405250610c179190810190611491565b610c56576040517f08c379a0000000000000000000000000000000000000000000000000000000008152600401610c4d90611b68565b60405180910390fd5b6000600560009054906101000a900473ffffffffffffffffffffffffffffffffffffffff1673ffffffffffffffffffffffffffffffffffffffff1663ddf7e1a7836001808b8d6040518663ffffffff1660e01b8152600401610cbc959493929190611bc8565b602060405180830381600087803b158015610cd657600080fd5b505af1158015610cea573d6000803e3d6000fd5b505050506040513d601f19601f82011682018060405250610d0e91908101906114fb565b905060008e90506000610d2a8c83610e9890919063ffffffff16565b9050808311610d6e576040517f08c379a0000000000000000000000000000000000000000000000000000000008152600401610d6590611b28565b60405180910390fd5b610d8a8a610d858e85610e9890919063ffffffff16565b610eed565b5050505050505050505050505050505050565b600073eeeeeeeeeeeeeeeeeeeeeeeeeeeeeeeeeeeeeeee73ffffffffffffffffffffffffffffffffffffffff168273ffffffffffffffffffffffffffffffffffffffff161415610e06578273ffffffffffffffffffffffffffffffffffffffff16319050610e92565b8173ffffffffffffffffffffffffffffffffffffffff166370a08231846040518263ffffffff1660e01b8152600401610e3f919061199f565b60206040518083038186803b158015610e5757600080fd5b505afa158015610e6b573d6000803e3d6000fd5b505050506040513d601f19601f82011682018060405250610e8f91908101906114fb565b90505b92915050565b600080828401905083811015610ee3576040517f08c379a0000000000000000000000000000000000000000000000000000000008152600401610eda90611b08565b60405180910390fd5b8091505092915050565b60008060009054906101000a900473ffffffffffffffffffffffffffffffffffffffff1673ffffffffffffffffffffffffffffffffffffffff1663ed6ff7606040518163ffffffff1660e01b815260040160206040518083038186803b158015610f5657600080fd5b505afa158015610f6a573d6000803e3d6000fd5b505050506040513d601f19601f82011682018060405250610f8e91908101906113a7565b9050610f9b818484610fa0565b505050565b73eeeeeeeeeeeeeeeeeeeeeeeeeeeeeeeeeeeeeeee73ffffffffffffffffffffffffffffffffffffffff168273ffffffffffffffffffffffffffffffffffffffff161415611056578273ffffffffffffffffffffffffffffffffffffffff168160405161100c9061198a565b60006040518083038185875af1925050503d8060008114611049576040519150601f19603f3d011682016040523d82523d6000602084013e61104e565b606091505b5050506110e5565b8173ffffffffffffffffffffffffffffffffffffffff1663a9059cbb84836040518363ffffffff1660e01b8152600401611091929190611a21565b602060405180830381600087803b1580156110ab57600080fd5b505af11580156110bf573d6000803e3d6000fd5b505050506040513d601f19601f820116820180604052506110e39190810190611491565b505b505050565b6000813590506110f981611eb2565b92915050565b60008151905061110e81611eb2565b92915050565b60008151905061112381611ec9565b92915050565b600082601f83011261113a57600080fd5b813561114d61114882611c48565b611c1b565b9150818183526020840193506020810190508360005b83811015611193578135860161117988826112c8565b845260208401935060208301925050600181019050611163565b5050505092915050565b6000815190506111ac81611ee0565b92915050565b60008083601f8401126111c457600080fd5b8235905067ffffffffffffffff8111156111dd57600080fd5b6020830191508360018202830111156111f557600080fd5b9250929050565b600082601f83011261120d57600080fd5b813561122061121b82611c70565b611c1b565b9150808252602083016020830185838301111561123c57600080fd5b611247838284611e5f565b50505092915050565b60006060828403121561126257600080fd5b61126c6060611c1b565b9050600061127c848285016110ea565b600083015250602061129084828501611354565b602083015250604082013567ffffffffffffffff8111156112b057600080fd5b6112bc84828501611129565b60408301525092915050565b6000608082840312156112da57600080fd5b6112e46080611c1b565b9050600082013567ffffffffffffffff81111561130057600080fd5b61130c848285016111fc565b6000830152506020611320848285016110ea565b602083015250604061133484828501611354565b6040830152506060611348848285016110ea565b60608301525092915050565b60008135905061136381611ef7565b92915050565b60008151905061137881611ef7565b92915050565b60006020828403121561139057600080fd5b600061139e848285016110ff565b91505092915050565b6000602082840312156113b957600080fd5b60006113c784828501611114565b91505092915050565b6000806000806000608086880312156113e857600080fd5b60006113f6888289016110ea565b955050602061140788828901611354565b945050604061141888828901611354565b935050606086013567ffffffffffffffff81111561143557600080fd5b611441888289016111b2565b92509250509295509295909350565b60006020828403121561146257600080fd5b600082013567ffffffffffffffff81111561147c57600080fd5b61148884828501611129565b91505092915050565b6000602082840312156114a357600080fd5b60006114b18482850161119d565b91505092915050565b6000602082840312156114cc57600080fd5b600082013567ffffffffffffffff8111156114e657600080fd5b6114f284828501611250565b91505092915050565b60006020828403121561150d57600080fd5b600061151b84828501611369565b91505092915050565b60006115308383611909565b905092915050565b61154181611dab565b82525050565b61155081611d51565b82525050565b61155f81611d51565b82525050565b600061157082611cc7565b61157a8185611d02565b93508360208202850161158c85611cac565b8060005b858110156115c857848403895281516115a98582611524565b94506115b483611cf5565b925060208a01995050600181019050611590565b50829750879550505050505092915050565b60006115e582611cbc565b6115ef8185611d02565b93508360208202850161160185611c9c565b8060005b8581101561163d578484038952815161161e8582611524565b945061162983611ce8565b925060208a01995050600181019050611605565b50829750879550505050505092915050565b600061165a82611cd2565b6116648185611d13565b9350611674818560208601611e6e565b61167d81611ea1565b840191505092915050565b61169181611dbd565b82525050565b6116a081611de1565b82525050565b6116af81611e05565b82525050565b6116be81611e29565b82525050565b60006116cf82611cdd565b6116d98185611d2f565b93506116e9818560208601611e6e565b6116f281611ea1565b840191505092915050565b600061170a601b83611d40565b91507f536166654d6174683a206164646974696f6e206f766572666c6f7700000000006000830152602082019050919050565b600061174a601e83611d40565b91507f5468657265206973206e6f2070726f6669742120526576657274696e672100006000830152602082019050919050565b600061178a602e83611d40565b91507f496e76616c69642062616c616e63652c207761732074686520666c6173684c6f60008301527f616e207375636365737366756c3f0000000000000000000000000000000000006020830152604082019050919050565b60006117f0602083611d40565b91507f436f756c64206e6f7420617070726f7665204241542061737365742073656c6c6000830152602082019050919050565b6000611830600083611d24565b9150600082019050919050565b600061184a602283611d40565b91507f436f756c64206e6f74207472616e73666572206261636b207468652070726f6660008301527f69740000000000000000000000000000000000000000000000000000000000006020830152604082019050919050565b60006118b0602483611d40565b91507f436f756c64206e6f7420617070726f766520726573657276652061737365742060008301527f73656c6c000000000000000000000000000000000000000000000000000000006020830152604082019050919050565b6000608083016000830151848203600086015261192682826116c4565b915050602083015161193b6020860182611547565b50604083015161194e604086018261196c565b5060608301516119616060860182611547565b508091505092915050565b61197581611da1565b82525050565b61198481611da1565b82525050565b600061199582611823565b9150819050919050565b60006020820190506119b46000830184611556565b92915050565b60006020820190506119cf6000830184611538565b92915050565b60006080820190506119ea6000830187611538565b6119f76020830186611556565b611a04604083018561197b565b8181036060830152611a16818461164f565b905095945050505050565b6000604082019050611a366000830185611538565b611a43602083018461197b565b9392505050565b6000604082019050611a5f6000830185611556565b611a6c602083018461197b565b9392505050565b60006020820190508181036000830152611a8d81846115da565b905092915050565b60006020820190508181036000830152611aaf8184611565565b905092915050565b6000602082019050611acc6000830184611688565b92915050565b6000602082019050611ae76000830184611697565b92915050565b6000602082019050611b0260008301846116a6565b92915050565b60006020820190508181036000830152611b21816116fd565b9050919050565b60006020820190508181036000830152611b418161173d565b9050919050565b60006020820190508181036000830152611b618161177d565b9050919050565b60006020820190508181036000830152611b81816117e3565b9050919050565b60006020820190508181036000830152611ba18161183d565b9050919050565b60006020820190508181036000830152611bc1816118a3565b9050919050565b600060a082019050611bdd600083018861197b565b611bea60208301876116b5565b611bf760408301866116b5565b611c04606083018561197b565b611c116080830184611556565b9695505050505050565b6000604051905081810181811067ffffffffffffffff82111715611c3e57600080fd5b8060405250919050565b600067ffffffffffffffff821115611c5f57600080fd5b602082029050602081019050919050565b600067ffffffffffffffff821115611c8757600080fd5b601f19601f8301169050602081019050919050565b6000819050602082019050919050565b6000819050602082019050919050565b600081519050919050565b600081519050919050565b600081519050919050565b600081519050919050565b6000602082019050919050565b6000602082019050919050565b600082825260208201905092915050565b600082825260208201905092915050565b600081905092915050565b600082825260208201905092915050565b600082825260208201905092915050565b6000611d5c82611d81565b9050919050565b6000611d6e82611d81565b9050919050565b60008115159050919050565b600073ffffffffffffffffffffffffffffffffffffffff82169050919050565b6000819050919050565b6000611db682611e3b565b9050919050565b6000611dc882611dcf565b9050919050565b6000611dda82611d81565b9050919050565b6000611dec82611df3565b9050919050565b6000611dfe82611d81565b9050919050565b6000611e1082611e17565b9050919050565b6000611e2282611d81565b9050919050565b6000611e3482611da1565b9050919050565b6000611e4682611e4d565b9050919050565b6000611e5882611d81565b9050919050565b82818337600083830152505050565b60005b83811015611e8c578082015181840152602081019050611e71565b83811115611e9b576000848401525b50505050565b6000601f19601f8301169050919050565b611ebb81611d51565b8114611ec657600080fd5b50565b611ed281611d63565b8114611edd57600080fd5b50565b611ee981611d75565b8114611ef457600080fd5b50565b611f0081611da1565b8114611f0b57600080fd5b5056fea365627a7a7231582099a9d0b2a481bcb7ae1896805036b153ccb66cfd71f6f2de6516a5590b29d07b6c6578706572696d656e74616cf564736f6c63430005100040",
  "source": "pragma solidity ^0.5.0;\r\n// pragma solidity >=0.8.4;\r\npragma experimental ABIEncoderV2;\r\n\r\n// Import money-legos contracts\r\nimport \"@studydefi/money-legos/aave/contracts/ILendingPool.sol\";\r\nimport \"@studydefi/money-legos/aave/contracts/IFlashLoanReceiver.sol\";\r\nimport \"@studydefi/money-legos/aave/contracts/FlashloanReceiverBase.sol\";\r\nimport \"@studydefi/money-legos/uniswap/contracts/IUniswapFactory.sol\";\r\nimport \"@studydefi/money-legos/uniswap/contracts/IUniswapExchange.sol\";\r\n\r\n// Import Openzeppelin contracts\r\nimport \"@openzeppelin/contracts/token/ERC20/IERC20.sol\";\r\n\r\ncontract FlashloanMoneyLego is FlashLoanReceiverBase {\r\n    address public constant AaveLendingPoolAddressProviderAddress =\r\n        0x506B0B2CF20FAA8f38a4E2B524EE43e1f4458Cc5;\r\n    address public constant BAT_ADDRESS =\r\n        0x2d12186Fbb9f9a8C28B3FfdD4c42920f8539D738;\r\n    address public constant UNISWAP_FACTORY_A =\r\n        0xECc6C0542710a0EF07966D7d1B10fA38bbb86523;\r\n    address public constant UNISWAP_FACTORY_B =\r\n        0x54Ac34e5cE84C501165674782582ADce2FDdc8F4;\r\n\r\n    struct blocker {\r\n        string name;\r\n        address coin_address;\r\n        uint256 amount;\r\n        address dex_address;\r\n    }\r\n    struct actioner {\r\n        address who;\r\n        uint256 amount;\r\n        blocker[] data;\r\n    }\r\n\r\n    IUniswapFactory public uniswapFactoryA;\r\n    IUniswapFactory public uniswapFactoryB;\r\n    IUniswapExchange public exchangeAforLoanAsset;\r\n    IUniswapExchange public exchangeBforLoanAsset;\r\n    IUniswapExchange public exchangeAforBAT;\r\n    IUniswapExchange public exchangeBforBAT;\r\n    event logger(blocker[] name);\r\n\r\n    constructor() public {\r\n        // Override the addressesProvider in the base class to use Kovan for testing\r\n        FlashLoanReceiverBase.addressesProvider = ILendingPoolAddressesProvider(\r\n            AaveLendingPoolAddressProviderAddress\r\n        );\r\n\r\n        // Instantiate Uniswap Factory A & B\r\n        uniswapFactoryA = IUniswapFactory(UNISWAP_FACTORY_A);\r\n        uniswapFactoryB = IUniswapFactory(UNISWAP_FACTORY_B);\r\n\r\n        // get Exchange B Address\r\n        address addressForBATExchangeA = uniswapFactoryA.getExchange(\r\n            BAT_ADDRESS\r\n        );\r\n        address addressForBATExchangeB = uniswapFactoryB.getExchange(\r\n            BAT_ADDRESS\r\n        );\r\n        // Instantiate Exchange B for BAT Token swaps\r\n        exchangeAforBAT = IUniswapExchange(addressForBATExchangeA);\r\n        exchangeBforBAT = IUniswapExchange(addressForBATExchangeB);\r\n    }\r\n\r\n    function executeOperation(\r\n        address _reserve,\r\n        uint256 _amount,\r\n        uint256 _fee,\r\n        bytes calldata _params\r\n    ) external {\r\n        require(\r\n            _amount <= getBalanceInternal(address(this), _reserve),\r\n            \"Invalid balance, was the flashLoan successful?\"\r\n        );\r\n\r\n        //\r\n        uint256 fee = _fee;\r\n\r\n        blocker[] memory blocks = abi.decode(_params, (blocker[]));\r\n        address RESERVE_ADDRESS = _reserve;\r\n        emit logger(blocks);\r\n        uint256 deadline = now + 3000;\r\n\r\n        // get Exchange Address for the reserve asset\r\n        address addressForLoanAssetExchangeA = uniswapFactoryA.getExchange(\r\n            RESERVE_ADDRESS\r\n        );\r\n        address addressForLoanAssetExchangeB = uniswapFactoryB.getExchange(\r\n            RESERVE_ADDRESS\r\n        );\r\n        // Instantiate Exchange A\r\n        exchangeAforLoanAsset = IUniswapExchange(addressForLoanAssetExchangeA);\r\n        exchangeBforLoanAsset = IUniswapExchange(addressForLoanAssetExchangeB);\r\n\r\n        IERC20 loan = IERC20(RESERVE_ADDRESS);\r\n        IERC20 bat = IERC20(BAT_ADDRESS);\r\n\r\n        // Swap the reserve asset (e.g. DAI) for BAT\r\n        require(\r\n            loan.approve(address(exchangeBforLoanAsset), _amount),\r\n            \"Could not approve reserve asset sell\"\r\n        );\r\n\r\n        uint256 batPurchased = exchangeBforLoanAsset.tokenToTokenSwapInput(\r\n            _amount,\r\n            1,\r\n            1,\r\n            deadline,\r\n            BAT_ADDRESS\r\n        );\r\n\r\n        require(\r\n            bat.approve(address(exchangeAforBAT), batPurchased),\r\n            \"Could not approve BAT asset sell\"\r\n        );\r\n\r\n        // Swap BAT back to the reserve asset (e.g. DAIs)\r\n        uint256 reserveAssetPurchased = exchangeAforBAT.tokenToTokenSwapInput(\r\n            batPurchased,\r\n            1,\r\n            1,\r\n            deadline,\r\n            RESERVE_ADDRESS\r\n        );\r\n\r\n        uint256 amount = _amount;\r\n\r\n        uint256 totalDebt = amount.add(fee);\r\n\r\n        require(\r\n            reserveAssetPurchased > totalDebt,\r\n            \"There is no profit! Reverting!\"\r\n        );\r\n\r\n        transferFundsBackToPoolInternal(RESERVE_ADDRESS, amount.add(fee));\r\n    }\r\n\r\n    // Entry point for flashloan\r\n    // address assetToFlashLoan,\r\n    //     uint256 amountToLoan,\r\n    function initateFlashLoan(actioner memory action) public {\r\n        bytes memory data = abi.encode(action.data);\r\n\r\n        // Get Aave lending pool\r\n        ILendingPool lendingPool = ILendingPool(\r\n            addressesProvider.getLendingPool()\r\n        );\r\n\r\n        IERC20 loan = IERC20(action.who);\r\n\r\n        // Ask for a flashloan\r\n        lendingPool.flashLoan(address(this), action.who, action.amount, data);\r\n\r\n        // If there is still a balance of the loan asset then this is profit to be returned to sender!\r\n        uint256 profit = loan.balanceOf(address(this));\r\n        require(\r\n            loan.transfer(msg.sender, profit),\r\n            \"Could not transfer back the profit\"\r\n        );\r\n    }\r\n}\r\n",
  "sourcePath": "D:\\Flashloan\\Flashloans\\contracts\\FlashloanMoneyLego.sol",
  "compiler": {
    "name": "solc",
    "version": "0.5.16+commit.9c3226ce.Emscripten.clang"
  },
  "schemaVersion": "3.4.3",
  "updatedAt": "2021-11-22T02:49:51.032Z",
  "networkType": "ethereum",
  "devdoc": {
    "methods": {}
  },
  "userdoc": {
    "methods": {}
  }
}